:020000040800F2
:1000000000000120598A0008818A0008818A0008BE
:10001000818A0008818A0008818A000800000000A7
:10002000000000000000000000000000818A0008BD
:10003000818A000800000000818A0008818A000887
:10004000818A0008818A0008818A0008818A000864
:10005000818A0008818A0008818A0008818A000854
:10006000818A0008818A0008818A0008818A000844
:10007000818A0008818A0008818A0008818A000834
:10008000818A0008818A0008818A0008818A000824
:10009000818A0008818A0008818A0008818A000814
:1000A000818A0008818A0008818A0008818A000804
:1000B00089890008818A0008818A0008818A0008ED
:1000C000818A0008818A0008818A0008818A0008E4
:1000D000818A000865030020818A0008818A00085F
:1000E000818A0008818A0008818A000800000000D7
:1000F0000000000000000000000000000000000000
:100100000000000000000000818A0008818A0008C9
:10011000818A0008818A0008818A0008818A000893
:10012000818A0008818A0008818A0008818A000883
:10013000818A00080000000000000000818A000899
:10014000818A0008818A0008818A0008818A000863
:10015000000000000000000000000000000000009F
:10016000000000000000000000000000000000008F
:10017000000000000000000000000000000000007F
:10018000000000000000000000000000000000006F
:10019000000000000000000000000000000000005F
:1001A000000000000000000000000000000000004F
:1001B000000000000000000000000000000000003F
:1001C000000000000000000000000000000000002F
:1001D000000000000000000000000000000000001F
:1001E0005FF8E0F108B50548054B1B1A062B00D84F
:1001F00008BD044B002BFBD09847F9E76C090020A1
:100200006F0900200000000008B50748074B1B1AC3
:100210009B1003EBD373591000D108BD044A002A88
:10022000FBD09047F9E700BF6C0900206C09002063
:100230000000000010B5064C237843B9FFF7D2FF49
:10024000044B13B10448AFF300800123237010BDA9
:10025000700900200000000068EB000808B5074B9B
:100260001BB107480749AFF300800748036813B183
:10027000064B03B19847BDE80840C5E70000000001
:1002800068EB0008740900206809002000000000E5
:10029000134B002B08BF114B9D46A3F5803A00215C
:1002A0008B460F461148124A121A09F0D1F90D4B2C
:1002B000002B00D098470C4B002B00D09847002013
:1002C000002104000D000B4809F05BF909F08AF9E0
:1002D0002000290000F010F809F05AF90000080089
:1002E0000000012000000000000000007009002054
:1002F00054B80020B9950008BD4B2DE980489A6993
:1003000040F2712142F480429A61BA4AC7B09160CA
:1003100042F22C01D160B84A20215160B74B996854
:100320005A68914201F02C8019689A680139501C72
:100330000A40B349986013441B7B91F80041DBB23B
:100340000D4654B9E02B03BF0B70012381F8003137
:1003500081F8004181F80141E0E7012C06D14B70A2
:1003600081F80131022381F80031D7E7601C91F850
:100370000121C0B282420B5581F80001CED18B78A9
:100380001C2B00F003872DD8082B00F0F58412D821
:10039000022B00F09F8106D8002B00F07E81012BFC
:1003A0004DD000F0B9BF032B00F01C83042B00F0EC
:1003B000548300F0B1BF112B00F0008607D80A2B40
:1003C00000F07B85102B00F0E18500F0A5BF182B15
:1003D00000F019861A2B00F04B86132B40F09C87F7
:1003E00000F001BE402B00F05C8713D8202B00F0FA
:1003F000FE8607D81D2B00F08B861E2B00F0D886BA
:1004000000F08ABF302B00F01987312B00F03087C5
:1004100000F082BF612B00F0B38307D8502B00F0AF
:100420005987602B00F0508300F076BF622B00F0FC
:10043000EA83903B012B40F2728700F06DBF714A56
:100440000021C2F828138DF883106F49E020097845
:100450008DF880000D208DF881008DF8823009B173
:100460008DF88330694B1E782EB19DF8833043F0B0
:1004700002038DF88330664D2B782BB19DF88330C5
:1004800043F004038DF88330624C23782BB19DF840
:10049000833043F008038DF883305F4B1B782BB11A
:1004A0009DF8833043F010038DF883305B4B1B784D
:1004B0002BB19DF8833043F020038DF88330584BE7
:1004C0001B782BB19DF8833043F040038DF88330C7
:1004D000544BB2F822E31B7800208DF88430524B45
:1004E000B2F824731B78A2F822038DF88530A2F8A5
:1004F0002403BEF1000F03D043F002038DF88530D2
:10050000537D002050752BB19DF8853043F00403D6
:100510008DF8853092F82930002082F829002BB11F
:100520009DF8853043F008038DF8853092F82C3320
:100530002BB19DF8853043F010038DF885302FB135
:100540009DF8853043F020038DF88530374A9DF8BB
:1005500085301278002A0CBF0022402213438DF808
:10056000853041B1324808F035F80D23B0FBF3F087
:100570008DF8860001E08DF88610E6B12D4B1B78D2
:100580006BB12D4808F026F82326B0FBF6F08DF865
:1005900087002A4808F01EF8B0FBF6F008E00A23AE
:1005A00027488DF8873008F015F82323B0FBF3F0C7
:1005B0008DF8880003E08DF887608DF888602B78CF
:1005C00043B1204808F006F87823B0FBF3F08DF82B
:1005D000890001E08DF889302378BBB31A4807F011
:1005E000F9FFD823B0FBF3F08DF88A0030E000BFAC
:1005F000001002400038014000E100E0040000204B
:100600006489002080B40020EB0100201D0200203E
:10061000110100201C0200201E02002010010020F9
:1006200000000020BC090020BE090020BD090020F8
:10063000782700201F020020C8520020D852002036
:100640008CAF002088AA0020B45300208DF88A3097
:10065000514B1B7843B1514807F0BCFF3023B0FB2E
:10066000F3F08DF88B0001E08DF88B304C4B1B784C
:1006700043B14C4807F0AEFF4423B0FBF3F08DF8D4
:100680008C0001E08DF88C30474B20A80D21984755
:10069000464B00221A6000F042BEE0228DF8802016
:1006A00001228DF882308DF883204148DAB2845CD3
:1006B000191DC9B2013324B146A8014401F8984C70
:1006C000F3E7394B20A88DF881109847374B1C6011
:1006D00000F025BE023C122C40F24C83CC784E79BF
:1006E000C4F30013322E81F8023191F8048000F235
:1006F0004183304808F0010190F806E0C8F3400259
:10070000BEF1060FC8F38003C8F3C00BC8F3001A8C
:10071000C8F34019C8F3801810D9BEF10A0F4ED0A3
:10072000AEF1620001281ED9AEF15B0005281AD98E
:10073000AEF16500062800F21D8314E0BEF1010F42
:1007400003D1002900F016833DE0BEF1020F03D172
:10075000002A00F00F8336E0BEF1030F03D1002B17
:1007600000F008832FE0BEF1040F04D1BBF1000FAD
:1007700000F0008327E0BEF1050F04D1BAF1000FAD
:1007800000F0F8821FE0BEF1060F15D1B9F1000F9D
:1007900000F0F08217E000BF1E020020EC210020D4
:1007A0001001002050500020FD02002018002742B8
:1007B0000C9E000864890020BEF10A0F03D1B8F135
:1007C000000F00F0D782A748C5790B95457A0F2D09
:1007D00000F2D08290F808C0877ACDF830C090F847
:1007E0000CC0CDF834C090F80DC0CDF838C090F8EA
:1007F0000EC0CDF83CC090F80FC0CDF840C090F8C6
:1008000010C0CDF844C090F811C0CDF848C090F8A1
:1008100012C0CDF84CC090F813C0CDF828C090F8A5
:1008200014C0407DCDF850C01590704603910592DC
:10083000049304F085FE03998B48059A01708B4957
:10084000049B0A708A4A8B4913708B4BE24383F8EE
:1008500000B08A4BC2F3C01283F800A0884B8948CD
:1008600083F80090884B83F80080884BDFF854822F
:100870001A7006EB46035A0002F59672A1F8A02200
:10088000990001F51671A8F8F014A0F874150C2160
:100890004E437F4906F51676C1F8F0647D495B0842
:1008A000A1F888257C4A48332846A2F83C3203F058
:1008B000D7FD7A4B0A9983F84357A3F84477784BCE
:1008C000784A1F80784B157083F8775B774BC4F3B9
:1008D000800283F84C55C4F3C00388F8F2344FF417
:1008E00096634B43C8F8F434DDF83080704B4FEA20
:1008F000C8110B9DDDF83C80A3F808130E99DDF8B4
:1009000034C04FEAC81683F80423DDF85080EA01AA
:10091000CD0113994FEACC104FEAC11EDDF840C05B
:100920004FEAC811DDF854804FEACC174FEAC81CD3
:10093000DDF8488014F0010FA3F816C308F5F06C39
:10094000DDF84480A3F8062318BF5242A3F818C369
:1009500018BFA3F8062308F5F06CA207A3F80A0352
:10096000A3F80C53A3F80E63A3F81073A3F812E3D3
:10097000A3F81413A3F81AC312D540426D4276426D
:100980007F42CEF1000E4942A3F80A03A3F80C53AC
:10099000A3F80E63A3F81073A3F812E3A3F81413DB
:1009A0001978002959D143484FF4C042C3694FF028
:1009B000805443F00103C3614FF080439A603E4886
:1009C000C7229962DA620122DA6004601868104373
:1009D00018603A4B196043F8042C354B1A7003F039
:1009E00087FD3AE0032800F0C581354BC8781B78B5
:1009F000834232D006280FD90A2827D0A0F16203FB
:100A0000012B15D9A0F15B03052B11D9A0F16503CA
:100A1000062B00F2AF810BE0012801D1124B16E04A
:100A2000022801D1114B12E0032801D1104B0EE036
:100A3000042801D1104B0AE0052801D10F4B06E034
:100A4000062801D10E4B02E00A2804D10E4B1B7878
:100A5000002B00F08F8104F073FD01F05BFE00F0CD
:100A60005EBC00BF64890020EB0100201D02002055
:100A700011010020782700201C0200201E02002007
:100A800010010020B4530020000000201F020020AD
:100A90008CAF0020EC21002050500020AC6C0020D6
:100AA00044820020438200207C8A00209C1C00207D
:100AB00080B400200010024000E100E09481214257
:100AC000BC09002088AA0020A71EFFB2072F54D916
:100AD00091F804804B7A08EB880891F803904D79DF
:100AE0008E7991F807B091F808A003F0010EC3F3D6
:100AF00040024FEA4808C3F380030021BC48084481
:100B000090F80AC020A801F800C00131C81DC0B289
:100B1000B842F3D3B748C6EB0616C5EB0515B600C9
:100B2000AD0080F83738B6B245F6C053ADB280F8A4
:100B3000362803FB06F26B43093C46A9E4B20C4499
:100B4000002104F8981C80F835E8C0F84828C0F85F
:100B500038381EB100F6480007F0B3FDCDF800B0FC
:100B6000CDF804A0A34820A94A46434607F00EFE4C
:100B7000044600283FF471AF00E004249E488EE351
:100B8000A71EFFB2052F3BD90B7991F806E003EBC6
:100B900083030EEB8E0ECA784E79CD795B004FEA57
:100BA0004E0E0020DFF848C220A984449CF808C0FB
:100BB00000F801C0013000F1050C5FFA8CFCBC4567
:100BC000F0D3073CE4B20DF58C784444002004F8DF
:100BD000980C182404FB0EF48648C0F860482EB127
:100BE00045F6C05E0EFB0646C0F8586800950195B4
:100BF000824807F0CBFD044600283FF42EAF00E00A
:100C000004247F484BE3023C0A2C40F2AF808B7AED
:100C1000784C91F8039091F804E048798E79CD7979
:100C200091F8088091F809C091F80BA00F7B4A7BDE
:100C300003F00101C3F3400309EB890984F8353956
:100C400045F6C05384F8341903FB09F1C4F8401881
:100C500003FB08F103FB0CF3D201C4F8683853100E
:100C6000C3F17F4303F57F0393FBF2F2FF014FEAE9
:100C7000CE1E0023C4F85018A4F82479A4F81A282A
:100C80007F4204F500610022C1E90023A4F836A9DF
:100C9000A4F828E8A4F82679A4F828E90023594FF5
:100CA0001A0112F807E0864507D13A4402F1080319
:100CB000D3E90023C1E9002302E00133322BEED156
:100CC000D1E9002352EA030C50D04A4BC3F808681C
:100CD00000234D4ADEB212F83310814203D112EBE9
:100CE000C60604D142E00133322BF2D13EE07388D4
:100CF000D4F82008A4F8243808B108F021FCB4F88E
:100D000024084FF00008400008F018FCC4F8200840
:100D10000D24654347462C460025DFF8D89008F19E
:100D2000010AB9F824381FFA88F843457FF695AED2
:100D3000384608F0E5FB00FB05F1C31704FB03117F
:100D4000A0FB04230B44D00F40EA43014FEAE37CAD
:100D5000D9F82038084600F30F0223F818207368EA
:100D60000691CDF81CC01F44D046D6E72748042181
:100D700001F098FB0420D0E2254B1D78632D19D19A
:100D8000042A31D1CC78234EB4F1010EDEF10004F7
:100D900054EB0E04337834B153B91F487380039178
:100DA00001F0CCFB03E01BB1039101F0B1FB03990F
:100DB00034701BE0622D05D0A5F15E03012B01D933
:100DC0005C2D2DD104280FD1CC78144B671E7C42AA
:100DD0007C411C702CB35C7844B905F0FD025C2AA0
:100DE0001FD101225A701CE004241AE0002418E0EC
:100DF0006489002038A1002006A1000838A5002041
:100E000023A10008A09A0008909E000840A10008B5
:100E1000BC09002088AF002021A500089C520020BA
:100E20000224A5F16603052B0ED891F80131042B9D
:100E300008D1984B0024DA78974B561E72427241C3
:100E40009A7225E0042423E05D2D0AD191F8013146
:100E5000042B2BD18F4BDA78904B541E62426241A7
:100E60000BE05B2D14D191F80131042B1ED1894B7D
:100E7000DA788B4B501E424242411A70002A3FF4EE
:100E8000ECAD5A78002A7FF4E8AD01225A70E4E50F
:100E9000652D0DD191F80131042B07D17D4BDA7806
:100EA000804B511E4A424A411A70D6E5042402E0A2
:100EB000002C3FF4D2AD7C48BBE17C4B1D78002D6B
:100EC00061D17B4E29464FF47A72304608F0C0FB60
:100ED000023C0822E4B2A6F8E823A6F8EA5386F812
:100EE000EC532946CBB2A34241D20023DEB20C25FB
:100EF000754370484719455D8046002D35D06E48D2
:100F00000133085CA842F1D197F8089013464FF0DE
:100F100000409D1AEDB24D4526D20C2505FB0685F5
:100F20006D68634F0540DFF8C0C1854203F0070ECE
:100F30004FEAE3057F5D1CF80EE00CBF4EEA0707A1
:100F400027EA0E07DFF868E10EF8057040F2E23597
:100F5000AB4205D9564B0022A3F8E823042413E042
:100F6000013340089BB2D4E71A460131BAE7082A98
:100F7000F0D005324E4B91B2A3F8E8134F4809B2B6
:100F800001F090FACBE105244D4852E14D4B1B781E
:100F90008BB1464B1D78012D0DD82C2818BF042489
:100FA0000AD1454801F0CAFA044628B9002D40F09C
:100FB000B681012088E10224434870E1414B1B784F
:100FC00073B13A4B1D78012D0AD80F2818BF04249D
:100FD00007D1394801F0D2FA04460028E6D000E0F3
:100FE00002243A485BE1374B1B784BB12F4B1D78FD
:100FF000012D05D801F08CFA04460028D6D000E077
:10100000022433484BE1334B1B7873B3274B1C78D6
:1010100014F0FD0729D1304B1B7833B3252818BFB6
:10102000042423D12D4E304607F0D4FA202841F273
:10103000F38196F8E83023B1378186F8E87077813C
:1010400037730026254FAB1938461979013607F05A
:1010500096F9212EF6D1224B1B78002B41F0D78137
:10106000012387F84C3001F0D2B902241D48E0E09A
:10107000184B1B78002B48D00C4D2B7813F0FD0F2C
:1010800043D1154B1B788BB3A11EC9B20A4803F09C
:10109000C9FA32E0648900205489002084AF00201E
:1010A000788A002086AF00205DA10008BC090020DE
:1010B000604C002008A30008678900207FA1000879
:1010C0009BA10008EB010020AEA10008CDA1000803
:1010D000EAA100081D0200201F020020C8520020C3
:1010E000BE09002006A20008949A0008252818BF0F
:1010F00004240BD18E4803F075F9044630B92B78DF
:10110000002B40F00C810220DEE002248948C6E07A
:10111000894B1B78002B01F0B880042841F0B78080
:10112000CB78012B17D1854A1278022A41F0AF8083
:10113000834A1178002940F0F280824A82F84C30CC
:10114000C2F8DC10C2F8E010C2F8E41082F8E8102F
:1011500082F8E910E3E0002B41F09980774A127899
:10116000022A41F09680764A1278002A00F0D78051
:10117000744A82F84C30C2F8DC30C2F8E030C2F871
:10118000E43082F8E83082F8E930C8E06A4B1B7836
:101190005BB10C2A18BF042408D1C81C03F00EFA56
:1011A0000446002800F0BB8000E00224664876E098
:1011B000614B1B78A3B1042814D1CB780022012BFA
:1011C00008D0022B10D15F4BC3F8E420012283F832
:1011D000E920A4E05B49C1F8E02081F8E8309EE016
:1011E000022402E0042400E00446584821E0584B61
:1011F0001B78D3B1514B1E780EB1032E15D17C282C
:1012000018BF042414D1534807F0E4F977280ED905
:1012100000242B194F481979013407F0B0F8782CC5
:10122000F7D1002E7BD103204EE0022400E00524FC
:101230004948214601F036F920466EE0474B1B78BD
:101240008BB13E4B1D7815F0FB0F0CD1023CE1B287
:1012500012290AD9364803F091F9044630B9002D15
:101260005DD1042030E0022400E004243C4816E074
:101270003A4B1B787BB1314B1D7815F0FB0F0AD12F
:10128000023CE1B2122908D9294803F077F9044653
:101290000028E4D002E0022400E00424314821B216
:1012A000C8E7314B1B7893B1244B1D780DB1052D48
:1012B0000DD1342818BF04240AD11D4803F046F983
:1012C000044628B95DBB052004F03AF927E0022462
:1012D0002648E4E7264B1B78CBB1184B1E780EB19D
:1012E000062E14D1472818BF042413D1214807F033
:1012F00071F943280DD900242B191E48D9780134DF
:1013000007F03DF8442CF7D14EB90620DCE7022463
:1013100000E0052418488CE7012001F0ABF9174BD9
:10132000002283F8002183F80121FEF7F7BF00BFF8
:101330006789002006A200081D020020BC090020C9
:10134000BE090020C852002020A200083EA20008CA
:101350001101002088AA002059A200081C020020C8
:101360007DA2000899A200081E020020B2A2000877
:101370001001002050500020CDA2000864890020F8
:101380009F4C4BF67F33D4F82823A0469A4205D9C8
:101390009C4B002283F8002183F80121D4F81C1310
:1013A00022780131964BC4F81C13002A00F03683D2
:1013B000D3F828234BF67F339A421ED992490B78F3
:1013C0005A1E052A16D8022B10D1904B1B786BB1F0
:1013D0008F4B002283F84C20C3F8DC20C3F8E020B8
:1013E000C3F8E42083F8E82083F8E92000230B7099
:1013F00003F07EF80023C4F82833D4F81C2345F604
:10140000BF518A427E4B0AD90022C3F81C2393F8AD
:10141000202382F0010283F820237E4B1A607E484D
:1014200006F0B1FE20B9794B1A78002A40F03587D2
:101430007A4806F0A8FE012840F2FD82002520AC83
:1014400016AA2A447548214606F050FEB8F8342002
:10145000B8F8363092B29BB29A424FEA450303D1B4
:10146000674A92F83820D2B1B8F83610D8F8302050
:1014700089B232F8111018AAD152002288F8382007
:10148000B8F83610B8F82C00013189B2A8F8361037
:10149000B8F8361089B2884201D85949CA8698F8F6
:1014A00021235AB1BDF880201AB140F6FF718A425B
:1014B00004D1B8F822230132A8F82223BDF8801005
:1014C000B8F8182301358A1AB8F9061312B24A433C
:1014D00017AF022D4FEAE232494E02F30F02FA52E1
:1014E000ADD196F82C83B8F1000F40F0A4823846B5
:1014F0001CA92A4607F0C6FA1EAA2B4606F13C0094
:101500001CA907F0E7FE1E9A1F9B134493FBF5F3FB
:10151000BDF85C201B1403F30F039BB2D21AADF885
:101520006420BDF85E20D31AADF86630364B1B78C8
:10153000002B51D13A4B1B7853B106F1680019A921
:1015400022462B4607F0BCFC204618A904F0D0F92F
:10155000344B1B784BB1344819A92246022307F0BB
:10156000AFFC204618A903F08BFE304B1B787BB1F3
:101570002F4819A91AAA022307F0A2FC2D481AA97C
:101580002246022307F09CFC204618A903F0A8FC81
:10159000294D2A4E2B780BB93378BBB1022328484A
:1015A0003946224607F08CFC33781BB1204618A937
:1015B00005F0B8FA2B784BB1224B20461B7813B1BB
:1015C00001F000FA02E018A904F072FD1E4B1B782E
:1015D000002B00F03082F8E0012B37D1104B1B7844
:1015E000002B00F0288206F1680019A922462B463C
:1015F00007F066FC204618A904F07AF91BE200BF48
:1016000080B4002064890020BC090020BE090020AD
:10161000C85200209081214298B4002084B4002058
:10162000EB0100201C020020F4B400201E02002068
:1016300000B500200CB500201D0200201101002083
:10164000DCB400201F02002000000020022B7AD111
:10165000774B1B78002B00F0EE812B4606F15C00E7
:101660003946224607F02CFC724B1B78002B65D0C4
:10167000714B1B78002B5DD00DF15706454616F8CF
:10168000012F6E4B042A6E4F0DD0082A15D100226F
:10169000A3F82227A3F82A27A3F82027C3F82C278A
:1016A00083F8412709E0674900220A8021F8022CCB
:1016B00003F5AC513A800A604A75B3F82AE70DF198
:1016C00060090EF1010E1FFA8EFEA3F82AE7B3F8A7
:1016D0004437615B734535F80920584807D990F8BD
:1016E000468718F1000818BF4FF0010803E009B25F
:1016F00005F038FC80463B88534801339BB23B8061
:101700000788615B9F4239F8052004D98078003052
:1017100018BF012004E0A0F2447009B205F022FCD9
:101720000235042DABD1B8F1000F18BF012002F033
:101730004DFE80E1204601F045F97CE1204618A9E4
:1017400004F0B6FC77E1032B10D1404B1B78002B43
:1017500000F0718106F15C0019A922462B4607F0C2
:10176000AFFB204618A905F0DDF964E1042B10D188
:10177000374B1B78002B00F05E8106F1740019A92D
:1017800022462B4607F09CFB204618A903F078FD63
:1017900051E1052B17D12F4B1B78002B00F04B810B
:1017A00006F1800019A91AAA2B4607F089FB06F159
:1017B0008C001AA922462B4607F082FB204618A966
:1017C00003F08EFB37E10A2B08D1234B19A91868C7
:1017D000003018BF012001F04BFE2CE1632B40F0DC
:1017E000C8800DF168081D4839464246022307F0BB
:1017F00067FB00261A4D38F806002B79C10B8B4287
:101800002F4609D02B68B3F5004F2ABF6FF4CC7276
:1018100003F299139B182B60D5F800E0104B0EF5DE
:101820004C523332B2F5803F29711BD21A609BE0D3
:101830001D0200201F020020BE090020AC6C002009
:101840002A820020228200204482002011010020F0
:101850001C0200201E02002034812142E8B4002036
:101860006C6C0020AEF54C42CD3A1A609A6852007A
:1018700009B142F001029A6095F83C20531CDBB29A
:1018800007EB4202172B85F83C30908103D9744B4B
:10189000002283F83C20A86820F07F43714858401C
:1018A00006F0C8FE02282CD800214FF47A534CF2DF
:1018B00080127818B0F90C0012B21BB202318242C9
:1018C000B8BF02468342A8BF0346302992B29BB2FA
:1018D000EFD110B219B2C1EB000EBEF1050F10DD51
:1018E00000124FF0000E8DF88100091220468DF88D
:1018F00080E08DF882208DF883108DF8843000F020
:10190000A3FFAB68584823F07F43584006F092FE8F
:10191000022829D800214FF47A534CF2801278180B
:10192000B0F90C0012B21BB202318242B8BF0246BB
:101930008342A8BF0346302992B29BB2EFD110B2C6
:1019400019B2451A052D0FDD001280258DF8810092
:10195000091220468DF880508DF882208DF8831072
:101960008DF8843000F070FF0236042E7FF442AF11
:1019700061E0602B5FD100263C4A18ABF15A5389D5
:1019800050688B42138938BF51818B4288BF374BD7
:10199000084488BF1981136850600133136045F60D
:1019A000BF529342314D35D9B0FBF3F32A89688990
:1019B000E0214FEA102C4FEA122EC3F307278DF8CF
:1019C00069008DF86D308DF880108DF88400092144
:1019D0008DF888302046264B8DF86B208DF88620B8
:1019E0008DF868C08DF86AE08DF86C708DF8821003
:1019F0008DF883C08DF885E08DF887708DF88110A3
:101A000098471C4A002313604FF6FF722B606B60EF
:101A10002A816B810236042EAED10CE01648814239
:101A200009D9C3F81C2393F8202382F0010283F81C
:101A30002023124B1A60124B124C1B7823B12378CF
:101A4000012B01D103F084F80F4B1B7813B32378DB
:101A5000022B1FD10D4B1B78D3B101F0C1FF19E050
:101A60006C6C002068B4AA00974B5500905200207F
:101A7000FD020020180027427FA903009081214227
:101A8000EB010020BC0900201D0200201F020020E5
:101A900001F01EFFBA4B1B78002B63D02378032B79
:101AA00060D1B84E304606F08BFC354630B9B6F8FA
:101AB000EC341BB9D6F8F834002B53D0B6F8EC341C
:101AC000B04F2BB9384606F07BFC002840F0268446
:101AD000B6F8EC34002B00F0FC8302F09BFC0646C9
:101AE000142E3FD9B5F8EE345A1CA5F8EE242B4439
:101AF00095F8F22493F83C00002300F0C007802FF3
:101B00001EA900F0D783C02F40F0CE83002A40F2F8
:101B1000657718BF4FF46D77CF5202338000082BE2
:101B2000C0B2EAD1984820AA042306F0DFFF0023C0
:101B3000032020A9142202F06FFA944B143E1B7864
:101B4000B6B21BB1D5F8F434C5F8F834B5F8EE14D4
:101B5000B5F8EC248B4B9142C2D30022A3F8EE24BB
:101B6000A3F8EC248A4B1B7823B12378042B01D1F2
:101B700002F0C8FE874B1B7823B12378052B01D1D7
:101B800002F04CFF844B1B78B3B12378834D062BB6
:101B900006D0B5F838321BB9284606F011FC58B10A
:101BA0007E4E304606F00CFC002840F0E283B6F88A
:101BB0003832002B40F0DD832378632B40F02C81FA
:101BC000774D02F0C5FF2B78002B00F0258175487A
:101BD00006F000FD0D23B0FBF3F0C3B2042B40F27E
:101BE0001B810023704A20A89A5C1A5401330C2BE5
:101BF000F8D16A881523B2FBF3F103FB11239BB2E2
:101C0000002B00F0FE80012A04D130238DF88930AA
:101C1000022305E0022A07D134238DF889301923E5
:101C20008DF88A30DE23EAE0032A04D131238DF8CF
:101C300089306F23F4E7042A07D11F238DF88930F8
:101C40002B238DF88A30F623D9E0052A04D13223DC
:101C50008DF8893022230FE0062A07D124238DF83E
:101C600089302A238DF88A30E023C8E0072A07D17B
:101C700033238DF889303B238DF88A30B323BEE0BF
:101C8000082A77D0012B07D125238DF889304F23DF
:101C90008DF88A309323B2E0022B07D170238DF8A0
:101CA00089300B238DF88A30DA23A8E0032B01D189
:101CB000252310E0042B04D133238DF889301B2316
:101CC000DAE7052B04D125238DF889306F2341E015
:101CD000062B04D139238DF889301D236FE0072BA3
:101CE00007D125238DF889300C238DF88A30C7233E
:101CF00085E0082B04D150238DF889306F2308E04C
:101D0000092A00F08C83092B07D125238DF889300F
:101D10001E238DF88A30D02371E00A2A00F08283D6
:101D20000A2B07D121238DF889300C238DF88A30B6
:101D3000C22364E00B2A00F078830B2B01D125230A
:101D400019E00C2A00F074830C2B07D13D238DF889
:101D5000893002238DF88A30D72350E00D2A00F015
:101D60006A830D2B01D1252357E70E2A00F06683E5
:101D70000E2B1BD150238DF889306F237CE700BFD9
:101D80001101002088AA002098AA00201F0200202C
:101D90001C0200201E0200201001002050500020D4
:101DA00088AF002078270020669A00080F2A00F0EC
:101DB00075830F2B07D125238DF889301B238DF8D0
:101DC0008A30D6231BE0102A0BD0102B07D12323F7
:101DD0008DF889301B238DF88A303A230FE0112AC1
:101DE00006D0112B04D121238DF88930252303E05F
:101DF00016238DF8893029238DF88A30F5238DF844
:101E00008B3000F0BBFB6A8840F276230132B2FBD4
:101E1000F3F103FB11236B802378622B07D05F2B38
:101E200005D05E2B10D05C2B40F0ED809AE0B34BD8
:101E30001A78B34B2AB1052283F84C2001F0D0FD6B
:101E4000E1E083F84C20DEE001F0CAFDAD4806F089
:101E5000C1FB2323B0FBF3F010F0FF0F00F0D380A1
:101E6000A64D6B78013B032B00F2C680DFE803F040
:101E7000021C545E012002F0F3FAA34802F09EFB1C
:101E8000A248222102F0CEFB9D4B012283F84C2078
:101E90000022C3F8DC20C3F8E020C3F8E42083F874
:101EA000E82083F8E92073E095F82A209849C2EBEE
:101EB000C2028B185878895CE8759878AA7D2876D4
:101EC000D8788E4E6876187901F00F01A876587987
:101ED0009B79E876287F22F00F0200F00F0023F0B4
:101EE0000F0303430A4306F1080022212B77AA754A
:101EF00002F098FB95F82A30052B09D1002386F8CB
:101F00002A303378002B7ED17C4B03225A707AE042
:101F1000013386F82A3076E07E48222102F082FBE7
:101F2000774BD3F8DC306B60042366E0744A686852
:101F3000D2F8DC301E308342704964D90023138309
:101F400082F84C305383C2F8DC30C2F8E030C2F87B
:101F5000E43082F8E83082F8E930137781F82A30EB
:101F60004B7050E001F0B4FC6B4806F033FB2323C8
:101F7000B0FBF3F010F0FF0F45D0604D6B78022BF3
:101F800008D0032B35D0012B39D1644802F02AFA4E
:101F9000022332E095F82A206149C2EBC2028B1875
:101FA0005878895CE8759878AA7D2876D87801F009
:101FB0000F016876187922F00F02A87658799B797C
:101FC000E876287F23F00F0300F00F0003430A4355
:101FD00005F108002B77AA7502F004FA95F82A306B
:101FE000052B04D1002385F82A302B788AE70133AA
:101FF00007E04C4802F0F6F900236B7003E0002381
:102000006B7085F82A3023785D2B21D102F07AFCA1
:10201000454806F0DFFAD823B0FBF3F010F0FF0FCD
:1020200016D0424D6B78012B02D0022B06D00DE06A
:102030003F48D92102F0A2FA022308E03D48D92105
:1020400002F09CFA2B7813B1012300E000236B709F
:1020500023785B2B21D102F0E1FC374806F0BAFA75
:102060003023B0FBF3F010F0FF0F16D0334D6B7838
:10207000012B0FD1324BAA78312000FB023002F045
:1020800065FAAB78013303F00303AB702B7823B907
:102090006B7002E000236B70AB702378652B09D165
:1020A000284B1B7833B102F0B5F9A52802D9AA2034
:1020B00002F016F82278A2F16603D9B2052904D9F4
:1020C0002378002B7EF42AA99FE01F4D297B2F4601
:1020D000914200F08580052B41D8DFE803F0030929
:1020E0000C373A3D4FF46F732B80298800233BE077
:1020F00040F20F43F8E740F2DF43F5E79C5200203F
:10210000C8520020D852002018A50008729A000872
:10211000649E0008E4A000088CAF0020EA9D00083F
:10212000C09D0008449A0008B453002084AF0020EA
:102130002002002012010020EC210020788A0020DB
:1021400020A0000886AF00205489002040F261637F
:10215000CAE740F61F03C7E740F6BF13C4E70023F2
:10216000C2E70133062BABD0BE4A5FFA83F832F8E0
:1021700033008842F5D112EBC808A1D0B8F802307C
:1021800068686B8008B107F0DBF968884FF0000AD7
:10219000400007F0D3F9D14668607B880AF1010B53
:1021A0001FFA8AFA5345B04E18D9484607F0A8F9E5
:1021B000B6F9083080FB0301C30F43EA410CCA178C
:1021C0006346099203F30F027368CDF820C023F829
:1021D0001A20D8F80430DA469944DEE723783373BE
:1021E000AB7A002B3FF46CAF02F014F905467A8805
:1021F0009D4E95427FF664AF00232078716801F010
:102200000BFF7388ED1AADB2F1E7984CB4F8E833E0
:10221000002B3EF483A802F0FDF80546182D7EF64B
:102220007DA8B4F8EA33924903F00702DB108A5C18
:10223000E35C6120134003D08E491822002301E0A3
:102240008D49182201F0E8FE94F8EC23183D013284
:10225000D2B2312AADB2854B84F8EC2307D9B3F85A
:10226000EA230132A3F8EA23002283F8EC23B4F82E
:10227000EA13B4F8E8237D4B9142CFD30022A3F8B0
:10228000EA23A3F8E823FEF749B8022402E0042475
:1022900000E004467948FEF7CCBF187094F8042398
:1022A000774B1A60FFF7C4B85FB94FF6C4674FF6B3
:1022B000895E0AE0002A40F2772718BF4FF49E7724
:1022C0002AE44FF64C474FF69B0E002A08BF77468C
:1022D00022E46C4BD3F8F834002B3FF443AC02F00B
:1022E00099F80646142E7FF63DAC002766481EA9D5
:1022F00020AA04231E971F9706F0F8FB3B460320F5
:1023000020A9142201F088FED5F8F834143E013BD0
:10231000B6B2C5F8F834002BE4D123E45B4B1B784C
:10232000A3B17827574806F016F8B5F8EC34013F0A
:102330005A1C17F0FF072B44A5F8EC2483F83C0047
:10234000F0D10023A6F8EE34FFF7C2BBB7F8F014C3
:10235000B7F8EC2498B287188842BFB205D22F4450
:10236000772087F83C000133F4E70A44A6F8EC2410
:10237000E7E7B5F838322BBB444B1B788BB9444A9E
:10238000B2F83C2299B2914205D22944AA2081F8A0
:1023900070010133F6E7A5F838220023A5F83A3298
:1023A00010E044263A4805F0D6FFB5F83832013E31
:1023B0005A1C16F0FF062B44A5F8382283F870014A
:1023C000F0D1EAE7B5F83832002B3FF4F5AB02F074
:1023D00021F80646A02E7FF6EFABB5F83A32A03EC4
:1023E0005A1C2B4493F87001A5F83A2201F078FEAC
:1023F000B5F83A22B5F83832254F9A42B6B2E9D349
:102400000023A7F83A32A7F83832FFF7D5BB002CE3
:102410007EF485AFFEF777BE0524FEF727BE0A2BB4
:102420000FD17FE40B2B10D189E40C2B11D18DE45B
:102430000D2B12D197E40E2B2CD19BE40F2B2DD119
:10244000B9E40B2B7FF480AC79E40C2B7FF489ACDE
:102450007CE40D2B7FF48CAC85E40E2B7FF4A9ACCF
:1024600088E400BF149A000854890020604C0020C2
:10247000949A0008EC0100208C090020EAA20008D0
:10248000B081214288AA002098AA0020BE0900201D
:10249000505000200F2B7FF498AC8CE4102B7FF46D
:1024A000A0AC94E430B5174BA3B093F802310D46BD
:1024B0002BB3E0238DF80430F2238DF8063000238F
:1024C000D9B2DA1C445CD2B222A90133114414B14E
:1024D00001F8844CF4E72B1201F8843C531C911C46
:1024E000DBB222AA134403F8845CC9B2064B01A8EC
:1024F0008DF805109847054B1C6006F0CDF823B009
:1025000030BD00BF64890020FD0200201800274272
:1025100008B5084806F05EF8014620B90648FFF7FE
:10252000C1FF052008BD0221024805F028FF002058
:1025300008BD00BF782700208BA5000838B50546E8
:102540000C4806F047F82928014605D80A4809B280
:10255000FFF7A8FF052038BD0648002105F00FFF52
:102560000024295D0348013405F009FF292CF8D126
:10257000002038BD78270020A8A5000838B50546FA
:102580000C4806F027F80C28014605D80A4809B27D
:10259000FFF788FF052038BD0648012105F0EFFE52
:1025A0000024295D0348013405F0E9FE0C2CF8D124
:1025B000002038BD78270020C8A50008F0B5844663
:1025C0002948A3B090F80201BDF9A070002848D0B6
:1025D000E0208DF80400F5208DF806000025E8B213
:1025E000EC1C1CF80060E4B222A80135204416B1AE
:1025F00000F8846CF3E70D1200F8845C601C22ADD7
:10260000C0B2284400F8841CA11CC9B2101229448D
:1026100001F8840CE11CC9B2294401F8842C221D64
:10262000D2B219122A4402F8841C621DD2B22A4482
:1026300002F8843CA31D04F10801DBB207342B44EB
:102640003A12E4B203F8842CC9B2084B2C4401A816
:1026500004F8847C8DF805109847054B1E6006F041
:102660001BF823B0F0BD00BF64890020FD020020EC
:102670001800274207B5E0238DF800307F238DF83E
:102680000230094B05219B788DF804008DF803304A
:102690006846064B8DF801109847054B00221A60DA
:1026A00003B05DF804FB00BF64890020FD02002038
:1026B0001800274210B5134BC0B01B7813F0FB0372
:1026C0001ED1114A1278DAB1E0228DF804203122AD
:1026D0008DF80620DAB2D41C8A42E4B206D240AAAF
:1026E0001444C25C013304F8FC2CF3E70331C9B293
:1026F000064B01A88DF805109847054B00221A607B
:1027000040B010BDBC0900201C020020FD020020CA
:102710001800274207B5E0238DF8043070238DF8A8
:102720000630084B04219B780DEB01008DF8073033
:10273000054B8DF805109847044B00221A6003B032
:102740005DF804FB64890020FD0200201800274288
:1027500010B5134B9EB01B7813F0FB031ED1114A2A
:102760001278DAB1E0228DF8002030228DF80220B4
:10277000DAB2D41C8A42E4B206D21EAA1444C25C65
:10278000013304F8782CF3E70331C9B2064B6846ED
:102790008DF801109847054B00221A601EB010BD3D
:1027A000BC0900201C020020FD0200201800274266
:1027B0000E4B13B51B7813F0FD0414D10C4B1B7892
:1027C0008BB100284FF0E0038DF804300CBF1923C3
:1027D0001B2303218DF8063001A8064B8DF8051048
:1027E0009847054B1C6002B010BD00BFBC0900201B
:1027F0001D020020FD0200201800274210B5E02332
:102800008EB08DF8043010238DF806300023DAB234
:10281000D41C8A42E4B206D20EAA1444C25C01332C
:1028200004F8342CF3E70331C9B201A8044B8DF846
:1028300005109847034B00221A600EB010BD00BF70
:10284000FD0200201800274200B50F4BA3B01B78F3
:10285000632B16D1E0238DF8043008238DF8063061
:10286000002301AA1A44C15C0133052BD170F8D1B1
:102870000821064B01A88DF805109847044B00224B
:102880001A6023B05DF804FBBC090020FD020020A3
:102890001800274210B5144BA2B01B78052B00D0AE
:1028A000FBB9124B1B78E3B1E0238DF804304023D1
:1028B0008DF806300023DAB2D41C8A42E4B206D284
:1028C00022AA1444C25C013304F8842CF3E70331D8
:1028D000C9B2074B01A88DF805109847054B002297
:1028E0001A6022B010BD00BFBC0900201E020020EB
:1028F000FD0200201800274210B5144BA2B01B782F
:10290000032B00D0FBB9124B1B78E3B1E0238DF809
:10291000043020238DF806300023DAB2D41C8A421A
:10292000E4B206D222AA1444C25C013304F8842C17
:10293000F3E70331C9B2074B01A88DF8051098479A
:10294000054B00221A6022B010BD00BFBC09002058
:1029500011010020FD0200201800274210B5154B80
:102960008AB01B7813F0FD0322D1134C2478FCB1FC
:1029700000284FF0E0040CBF18201A208DF800400A
:102980008DF80200D8B2C41C9042E4B206D20AA864
:102990000444C85C013304F8280CF3E7D11CC9B225
:1029A000064B68468DF801109847054B00221A60C7
:1029B0000AB010BDBC0900201D020020FD0200204D
:1029C000180027422DE9F04FA9B003900026A84C2B
:1029D0000398B4F83C35825B54F8231012F4004F8E
:1029E0004FEA410118BF41F0010144F8231054F8A7
:1029F0002330B4F83EB59F4823F07F4304EB4B01EE
:102A000058408A8205F016FE0228A04600F2D980BE
:102A10000BF2212080B2B0F5257F28BFABF1730205
:102A20004FF000012CBF92B202460D464FF47A5788
:102A30004CF2801ADFF85CC208EB4203B3F91430A1
:102A400011F90CC00FFA8AFA3FB29A45B8BF9A46FC
:102A50009F42A8BF1F46BCF1010F1FFA8AFABFB2FE
:102A60000AD0BCF1030F05D0BCF1FF3F06D003EB49
:102A7000430303E003EB4303ED1A00E01D44531D41
:102A80009BB2B3F5257F28BFA2F28F2201F101018D
:102A900028BF93B2182901D01A46CBE7D4F84435A1
:102AA0009D4240F38E800FFA8AFA3FB257447F105E
:102AB00044F63143C7EB0A0A03FB0AFA4FEAEA3A43
:102AC000B0F5257F1FFA87F91FFA8AF80DF1140C6B
:102AD00028BFABF173000FFA89F30FFA88FB624647
:102AE000009328BF80B20423CDF804B01821CDF89C
:102AF00008C001F0A3FE0023DDF808C01A465E49B5
:102B0000585C1CF8031001405C48185C01334140DC
:102B10005B48072B415C0A44D2B2F0D1032A50D85B
:102B2000584B93F80231002B34D0E0238DF81C3041
:102B3000F3238DF81E300021534AC8B2CB1C825CAF
:102B4000DBB228A80131184412B100F8842CF3E755
:102B5000391200F8841C591C28A8C9B2014401F894
:102B6000847C991CC9B201444FEA2B2B01F884BC28
:102B7000191D0333DBB2034403F884ACC9B2434BE1
:102B8000029207A88DF81D109847414B029A1A60CF
:102B900005F082FDB4F83E25354B02F20D1189B2E5
:102BA000B1F5257F24BF6FF4C3715218C4F84455A2
:102BB000A4F84895A4F84A8534BFA3F84015A3F8B3
:102BC0004025B4F83E25B4F84035934233D1981DE2
:102BD00080B2B0F5257F24BFA3F28E2398B2B4F95A
:102BE000483584210093B4F94A3507AA0193082394
:102BF00001F024FE0DF1130205AB04A80DF11D0137
:102C000005F052FE9DF8132094F84C359A420BD1F2
:102C10009DF81430032B07D1C323002007A92222DB
:102C20008DF81C30FFF79AFE42F20F73A4F840357E
:102C30000023C4F84435B4F83E250D4B013292B25E
:102C4000B2F5257F28BF0022A3F83E25B4F83C2525
:102C5000074B013292B2042A06F1020688BF002215
:102C6000042EA3F83C257FF4B2AE29B0BDE8F08F66
:102C70009C1C00206E28760018A7000884A5000878
:102C800012A6000864890020E6A50008FD020020C5
:102C90001800274262A50008B0F8263730B503F1C6
:102CA0003C0203F516739DB292B20023541C00EB54
:102CB0004202A4B2B2F84A27AC42134401D02246E1
:102CC000F4E74FF40772B3FBF2F3C3F3072281F882
:102CD000222081F8233000782422BDE83040FFF71D
:102CE0003DBE00000146164830B5B0F85A3B4FF4DF
:102CF00007743C339BB20022054605EB4300B0F855
:102D00007C0B013C0244581C80B2B0F5B46F28BF64
:102D1000A3F29F53A4B228BF98B20CB10346ECE7CC
:102D20004FF40773B2FBF3F2C2F3072381F82320B9
:102D300081F8223001202422BDE83040FFF70EBE8A
:102D40007C8A002010B5134B86B01B78012B1FD84E
:102D5000114B1B78E3B1E0238DF8043011238DF87B
:102D600006300023DAB2D41C8A42E4B206D206AAA4
:102D70001444C25C013304F8142CF3E70331C9B2E4
:102D8000064B01A88DF805109847054B00221A60E4
:102D900006B010BDBC090020EB010020FD020020A0
:102DA0001800274210B50B4CB4F85C234AB1D4F894
:102DB0005813B1FBF2F2C2F30721017342730E21E3
:102DC00000E00C21FFF7BEFF0023C4F85833A4F83D
:102DD0005C3310BD3C1900202DE9FF41744C42F2D8
:102DE000D813E35A734804EB83035B6823F07F43F3
:102DF000584005F01FFC022800F2D58042F2DA1399
:102E0000E05A002100F583560D36B6B2B6F5875F5D
:102E100026BFA0F1730292B232460D464FF47A57A4
:102E20004CF2801CDFF8908102F10C0334F913306E
:102E300011F908800FFA8CFC3FB29C45B8BF9C4644
:102E40009F42A8BF1F46B8F1010F1FFA8CFCBFB20A
:102E50000AD0B8F1030F05D0B8F1FF3F06D003EB5D
:102E6000430303E003EB4303ED1A00E01D44531D4D
:102E70009BB2B3F5875F03D3A2F586521B3A93B298
:102E80000131182901D01A46CCE742F2EC12A258BF
:102E9000474B954240F3878042F238229A5C632A7E
:102EA00013D10FFA8CFC3FB267447F1042F2142218
:102EB0009F52C7EB0C0C44F63E1707FB0CFC42F28A
:102EC00036224FEAEC3C23F802C042F21423E35EC0
:102ED000B6F5875F009342F2362328BFA0F1730650
:102EE000E35E28BFB6B202AF0193304618213A46DE
:102EF000002301F0CFFB20780023002814BF042218
:102F000002221946DFF8B4C013F80C8017F803C08A
:102F1000013388EA0C0CDFF8A880062B18F80CC0E7
:102F20006144C9B2EED191423DD842F2EC13E55072
:102F3000052242F2F013E25242F2DA13E35A42F26D
:102F4000E812A35242F2DE12A65203F58352073270
:102F500092B2174FB2F5875F42F2E01128BFA3F19A
:102F600079027A52E8B903F2BB7080B242F2E612FB
:102F7000A3520F4942F2DC12B0F5875FA65228BF78
:102F8000A3F6251042F2E212885203F2BD7189B213
:102F9000B1F5875F42F2E4122ABFA3F62313A152D0
:102FA000A352012000E0002004B0BDE8F08100BF82
:102FB0001C2A0020A030FB004AA5000812A7000828
:102FC00012A600082DE9FF415F4CB4F8163F04EB50
:102FD00043035888C0F3090080F4A67080F0010014
:102FE00005F028FB022800F2AB80B4F8180F00218E
:102FF00000F22676B6B2B6F5F06F26BFA0F15A02FF
:1030000092B232460D464FF47A574CF2801CDFF8EC
:10301000408104EB4203B3F9163011F908800FFA2E
:103020008CFC3FB29C45B8BF9C469F42A8BF1F4640
:10303000B8F1010F1FFA8CFCBFB20AD0B8F1030F30
:1030400005D0B8F1FF3F06D003EB430303E003EBE9
:103050004303ED1A00E01D4402F10A039BB2B3F5ED
:10306000F06F28BFA2F2767201F1010128BF93B27E
:103070000A2901D01A46CAE7D4F8242F324B9542C8
:103080005EDD93F8702F632A10D10FFA8CFC3FB2EB
:1030900067447F10C7EB0C0CA3F84C7F44F63E1737
:1030A00007FB0CFC4FEAEC3CA3F86ECFB4F94C3FA5
:1030B000B6F5F06F28BFA0F15A060093B4F96E3F41
:1030C00028BFB6B2019330460A2103AA002301F0BB
:1030D0004BFB23789DF80D009DF80C10002B1B4B2B
:1030E00080F0F50081F0CD01595C185C14BF03221B
:1030F000012208449DF80E1021F00F0181F090018B
:10310000595C431803F0FF03934219D80623A4F82F
:10311000283FB4F8183F0C4A03F21B7189B2B1F58D
:10312000F06FA4F81E3F28BF653BC4F8245FA4F8E5
:103130001A6F34BFA2F81C1FA2F81C3F012000E048
:10314000002004B0BDE8F081C009002012A60008EC
:103150007AA5000870B5B24C054694F83438062BB1
:1031600000F2ED80DFE803F00439687B8E98B00050
:10317000002800F0E480D4F85038A94D172B12D95C
:10318000A84803F0A5FC012305F5056085F834384F
:1031900005F097FA95F835387BB195F8373863B96B
:1031A00003F0BCFE09E0A04803F092FC022385F87E
:1031B000343895F83538002BF2D19C4805F081FA67
:1031C0009B4805F07EFA9B4805F07BFA9A4803F08D
:1031D0007FFC9A4B0A221A70B1E0F8B1984805F0CA
:1031E00063FA002800F0AB808F4803F071FC0223E3
:1031F00084F834380023C4F8543894F83538002B58
:1032000000F09D80864B93F83738002B00F09780B4
:1032100003F084FE874805F054FA90E0894803F0F3
:1032200057FC84F83458C4F85458C4F84458C4F8C7
:103230005C58C4F83C5882E060B1D4F84438784D0A
:10324000002B73D005F5046005F02EFA002840F03D
:103250008C806BE07C4803F03BFC032318E020B13A
:10326000714803F035FC02231BE0D4F864386C4D40
:10327000002B5BD005F5066005F016FA002840F03B
:10328000878053E0002851D1704803F021FC0523CA
:1032900084F834386E482EE048B16E4803F018FCCC
:1032A000042384F834380023C4F864383EE0D4F8AA
:1032B00064385B4E002B39D006F5066005F0F4F952
:1032C000002840F0838031E0C0B1574803F000FC93
:1032D0000223614884F8343803F0FAFB0023534892
:1032E00084F80034A4F8EC37A4F8F037A4F8FA37DF
:1032F00005F0E7F94E4805F0E4F917E0D4F86C382A
:10330000474E9BB106F6680005F0CEF970B14D4806
:1033100003F0DEFB96F8363886F83458C6F86C5859
:103320000BB103F0FBFD0023C4F83C38D4F83C3863
:103330002BB1404805F0B8F900287FF469AF94F844
:103340003438374D002B69D13C4E33780A2B65D188
:10335000284605F0BBF9002860D105F5806005F02E
:10336000B5F90446002849D070BD3A4803F0B0FBD7
:10337000042385F8343801220023C5F85C38C5F8E9
:10338000443885F82A28C5F82C3885F83038CDE738
:10339000324803F09DFB062385F83438D5F85C38B5
:1033A00023B105F6580005F07FF940B12C4803F031
:1033B0008FFB2C4805F098F90023C4F85C380023F3
:1033C000C4F86438C4F84438274894E7234803F025
:1033D0007FFB0623224886F82A5886F8343803F003
:1033E00077FB06F5806005F07FF9C6F86458C6F8EB
:1033F0005C58C6F8445806F668007CE71B4803F0A2
:1034000067FB3470C5F83C48C5F84448C5F85448D3
:10341000C5F85C48C5F86448C5F86C4870BD00BF85
:1034200038A1002046A7000858A7000878A9002066
:1034300090A9002070A900206AA70008BC090020FC
:1034400088A900207DA7000890A70008B0A7000861
:1034500098A90020C6A70008D7A70008E0A7000881
:10346000A7A7000838A50020A0A90020EEA7000803
:103470002DE9F04FBA4B91B093F8342983460D9162
:103480002AB193F8353923B180F0010B01E04FF0F8
:10349000010BB44801F0F6F8B34801F0F3F8B34873
:1034A00001F0F0F8B24801F0EDF8B24801F0EAF8A6
:1034B000B14801F0E7F8B14801F0E4F80D9C4FF095
:1034C000000A0C94A64E0C9C5FFA8AF5D6F8109868
:1034D0000B9534F8025B06F500630FFA85F80A9540
:1034E0004FEAE975D3E900230C9402FB05F4D6F802
:1034F0001418B6F91A080E910F9009FB0344A2FBA9
:1035000009012144C40F44EA4105CC170E990194E6
:103510000F9C05F31E00C1EB4000B6F80C1804FB2D
:10352000080096F81878013189B241F2707407F0FA
:10353000FE0CA14286F818C8C6F814980095C6F883
:103540001008A6F80C1858D180FB0045E10F41EA9D
:1035500045010291029CE91704F31E0889FB094505
:103560000391E10F41EA45010491E917059180FBC0
:103570000901049D05F31E04C50F45EA41050695A2
:10358000CD170698079500F31E056B43E91702FB5C
:103590000131A5FB02230B44D10F41EA4305A044AE
:1035A000D6F80828D817294601F31E03A8EB4301D3
:1035B000914209900895C7F3400004DB4CF0030CDE
:1035C00086F818C805E027F0030747F0010786F8DA
:1035D0001878634B93F81838C3F34003984204D02B
:1035E000674809B212B203F027FA5D4B0022A3F834
:1035F0000C28C3F81028C3F81428594B614C93F8D1
:103600001838227813F0010F03D10A2A40F03C81C8
:1036100018E00A2A03F002030AD0002B14BF584610
:103620000020FFF797FD23780A2B40F02D8113E04F
:10363000002B14BF58460020FFF78CFD23780A2B7F
:103640000AD029E10B9C012C06D113F0020F14BF04
:1036500058460020FFF77EFD414A92F83438013B7E
:10366000012B4CD8B2F82419002941D092F82A39FC
:103670008BB90A9D09B22BB28B4208DB012382F879
:103680002A390023C2F82C3982F8303903E0B2F924
:1036900026199942F2DA92F82A29314B42B3D3F82B
:1036A0002C29B2F5166F16D893F83009364D411C07
:1036B000B3F9284955F82000C9B244430B294FEA11
:1036C000E43483F8301904F30F04A4B204D90021C0
:1036D00083F8301900E000240132214B42F6DF610B
:1036E0008A42C3F82C2904D9002283F82A2900E051
:1036F0000A9C1B4BB3F836395C43A4B200E00024AB
:10370000174804F0E3FF20B9204804F0FBFF2044F1
:1037100084B21E4804F0DAFF00286DD11C4890F8EE
:10372000343823B904F0EEFF204484B264E0037817
:10373000002B5ED0B0F8EC13164D01F0070200EB41
:10374000D103AA5C5B78134026D0B0F8FA23D0F8F6
:10375000F433B0F8FE039B5CFBB9404280B21CE03E
:1037600038A1002070A9002078A9002080A900209D
:1037700088A9002090A9002098A90020A0A90020D5
:1037800003A80008BC0900202CA8000838A50020C8
:1037900038A1002023A800081846474BB3F8FA23A5
:1037A000B3F8F853013292B29542B3F8F053A3F84C
:1037B000FA2305F1010598BF0022ADB298BFA3F826
:1037C000FA23A3F8F053B3F8EE333B4AAB4211D8D7
:1037D0000131B2F8EA5389B200238D42A2F8F033E6
:1037E000A2F8EC1306D81370A2F8EC33A2F8FA335F
:1037F00000E018460444A4B22F4D284604F066FFAA
:1038000000BB05F5806004F061FFD8B995F82A384F
:10381000C3B1D5F82C2842F6E0639A4209D995F84D
:1038200030380133DBB23B2B94BF85F8303885F854
:103830003008013245F6BF539A421F4B88BF002221
:10384000C3F82C2821B21D4804F008FF01461C488B
:1038500004F004FF01461B4804F000FF1A4BB3F8C4
:103860002618D3F820484A1C92B2A3F8262834F828
:103870001110B3F82448084494420C9C9CBF0022C9
:10388000A3F8262824F8020C0AF1010ABAF1020F63
:103890007FF418AECDF82CA00C4B18780A2807D16D
:1038A0000D990B9A002311B0BDE8F04F00F0B4BBA6
:1038B00011B0BDE8F08F00BF38A10020A8A90020FA
:1038C000CCA90020F0A9002038A10020BC090020CC
:1038D00030B53F4C8DB0B4F8EC5455B9204604F0E7
:1038E0006FFD00284BD104E0A4F8EC240023A4F8D9
:1038F000EE34B4F8EC34002B67D000F08BFD0546B5
:10390000142D62D9B4F8EE345A1C2344A4F8EE24E2
:1039100093F83C20002302F0C001802908D0C02980
:1039200003D041B94FF63A6107E040F2525104E04A
:103930004FF4E37101E04FF6AE212DF8031002338E
:103940009200082BD2B2E6D12248694602AA04238B
:1039500005F0CCF802A914220023022000F05CFB41
:10396000B4F8EE14B4F8EC24143D9142ADB2184B07
:10397000C6D30022A3F8EE24A3F8EC2425E0164BCE
:103980001B78B3B1124804F0E6FC63190135212D10
:1039900083F83C00F6D100231049E218595C01334A
:1039A000272B82F85D10F7D1094B4822A3F8EC24AD
:1039B0009CE7D4F8F024591C9BB2934294D2234440
:1039C0005F2083F83C000B46F5E70DB030BD00BF2B
:1039D0008CAF00209CAF0020BE0900201FA700086C
:1039E000F0B5574C93B094F84C30002B00F0A58004
:1039F000B4F8D820002A52D1013B042B48D8DFE884
:103A000003F003470E081300002004F0A3FD042375
:103A100043E00120002104F0F3FC03233DE00120FA
:103A200004F098FD022338E0464B1B78622B0DD141
:103A3000454B03F121025F2103F8011F93424FF030
:103A4000000103F8281CF6D121231BE05F2B1BD1BA
:103A50003D4BDA1D552103F8011F93424FF0000141
:103A600003F8281CF6D15F2384F8B630374BDA1DF3
:103A7000FF2103F8011F93424FF0000103F8281CB7
:103A8000F6D10F23A4F8D8300023A4F8DA3006E0EA
:103A90000020012104F0B4FC012384F84C30B4F878
:103AA000D830002B49D000F0B5FC0646142E44D97E
:103AB000B4F8DA30E11891F8AF20013391F887704B
:103AC000A4F8DA30002302F0C001802901AD08D04B
:103AD000C02903D041B94FF63A6107E040F2525194
:103AE00004E04FF4E37101E04FF6AE21E9520233F6
:103AF0009200082BD2B2E6D10021142203A805F0CF
:103B0000A7FD1348294608AA04238DF8167004F06F
:103B1000EDFF08A9142203AB022000F07DFAB4F8EF
:103B2000DA10B4F8D820143E9142B6B2044BBDD39B
:103B30000022A3F8DA20A3F8D82013B0F0BD00BF0C
:103B4000C8520020BC090020765300207E5300207C
:103B5000E85200202DE9FF47984C8046B4F8543BCA
:103B6000974854F8233023F07F43584004F062FD17
:103B70000228A0F10300C0B28CBF4FF0000A4FF042
:103B8000010A122840F21781B4F856CB00220CF239
:103B90002D5080B2B0F5B46F26BFACF1730189B27D
:103BA000014615464FF47A564CF2801704EB410358
:103BB000B3F914303FB236B29F42B8BF1F469E429F
:103BC000A8BF1E46BFB2B6B2BAF1000F02D0DFF8EE
:103BD000FC9101E0DFF8F89112F809904FFA89F9A9
:103BE000B9F1010F0AD0B9F1030F05D0B9F1FF3FC8
:103BF00006D003EB430303E003EB4303ED1A00E0BD
:103C00001D444B1D9BB2B3F5B46F28BFA1F29B516D
:103C100002F1010228BF8BB2182A01D01946C5E76C
:103C2000D4F8603B9D4240F3C6803FB233B23B4480
:103C30005B109EB2FF1A44F631435F43B0F5B46F98
:103C400033B2C7F3CF3728BFACF1730000930DF147
:103C500008093BB228BF80B2019318214A460423C9
:103C600004F0E0F957495848BAF1000F44D0002356
:103C70001A4610F803A019F803C00AEA0C0CDFF882
:103C800054A113F80AA001338CEA0A0C11F80CC0F5
:103C9000072B6244D2B2ECD1032A00F28C80B8F137
:103CA000000F13D00023A4F8727BA4F8707BA4F853
:103CB0006E7BA4F86C7BA4F86A6BA4F8686BA4F81C
:103CC000666BA4F8646B84F8743B10E094F8743B62
:103CD0003A4A04EB43010133DBB2032BA1F86C7BBE
:103CE000A1F8646B94BF82F8743B82F8748B334AFA
:103CF000C4F8605B402342E05346524610F803A0EC
:103D000019F803C00AEA0C0CDFF8CCA013F80AA0DB
:103D100001338CEA0A0C11F80CC0072B6244D2B2B2
:103D2000ECD1032A47D8B8F1000F13D00023A4F830
:103D3000727BA4F8707BA4F86E7BA4F86C7BA4F86B
:103D40006A6BA4F8686BA4F8666BA4F8646B84F8DB
:103D5000743B10E094F8743B184A04EB43010133C0
:103D6000DBB2032BA1F86C7BA1F8646B94BF82F8E3
:103D7000743B82F8748B114AC4F8605B202384F88A
:103D8000753BB4F8563B03F21A4189B2B1F5B46FF2
:103D900028BFA3F5C371A2F85A1B03F20D1292B209
:103DA000B2F5B46FA4F8583B2ABFA3F29343A4F82A
:103DB0005C2BA4F85C3B04B0BDE8F0877C8A002053
:103DC0006E28760012A600085CA8000872A80008F9
:103DD000B4A80008ADA8000838A90008B0F820373A
:103DE0002DE9F04700EB83035B680446834823F02A
:103DF0007F4386B05840884604F01CFC0228A0F19E
:103E00000300C0B28CBF4FF000094FF00109122827
:103E100040F2F080B4F822370020A3F1730189B298
:103E200005331FFA83FA0F464CF280164FF47A528C
:103E3000054607F10C0334F9133036B212B29E4234
:103E4000B8BF1E469A42A8BF1A46B6B292B2B9F19E
:103E5000000F02D0DFF8B0C101E0DFF8B0C110F808
:103E60000CC04FFA8CFCBCF1010F0AD0BCF1030F5F
:103E700005D0BCF1FF3F06D003EB430303E003EBA7
:103E80004303ED1A00E01D440537BFB2574500F16A
:103E90000100CED1D4F82C379D4240F3AB8036B22E
:103EA00012B232445210B61A44F631435E43042330
:103EB000C6F3CF3600930DF1100A33B2019202938C
:103EC000204697B25346182204F098F94C494D48C1
:103ED000B9F1000F40D00022134610F802901AF8F2
:103EE00002C009EA0C0CDFF8289112F8099001329F
:103EF0008CEA090C11F80CC0072A6344DBB2ECD140
:103F0000032B77D8B8F1000F11D0A4F83E67A4F8BE
:103F10003C67A4F83A67A4F83867A4F83677A4F8A1
:103F20003477A4F83277A4F8307700230BE094F8C4
:103F3000403704EB43020133DBB2032BA2F83867AE
:103F4000A2F8307702D884F8403701E084F840873F
:103F5000C4F82C5740233FE04A464B4610F80290E5
:103F60001AF802C009EA0C0CDFF8A89012F80990C0
:103F700001328CEA090C11F80CC0072A6344DBB249
:103F8000ECD1032B36D8B8F1000F11D0A4F83E675E
:103F9000A4F83C67A4F83A67A4F83867A4F8367721
:103FA000A4F83477A4F83277A4F8307700230BE034
:103FB00094F8403704EB43020133DBB2032BA2F841
:103FC0003867A2F8307702D884F8403701E084F8E7
:103FD0004087C4F82C57202384F84137B4F822379F
:103FE000A3F5C372A4F8243703F20D13A4F826270F
:103FF000A4F8283706B0BDE8F08700BF6E28760029
:1040000012A600086BA800083FA9000820A9000814
:104010009EA8000857A900082DE9F8432C4C1F461C
:10402000237889469046002B50D094F82C33002BEF
:104030004CD1284B1A783AB901221A7094F804230B
:10404000254B82F001021A60013809281BD8DFE8ED
:1040500000F005080B0E11141A1A1A17B4F80A53B7
:1040600013E0B4F80C5310E0B4F80E530DE0B4F8BC
:1040700010530AE0B4F8125307E0B4F8145304E004
:10408000B4F8165301E0B4F808530026B3B2434520
:104090001CD239F9163029B25943B4F81A23C9137E
:1040A00001F30F01114489B2B1F5805F084B04D3CD
:1040B000B3F824230132A3F8242308480FB93A4661
:1040C00000E0BA5D04F038F80136DFE7BDE8F883B8
:1040D00080B40020BE090020B081214298B40020A5
:1040E00030B50023ADF5217D02060BD5154A00A998
:1040F000194402F1280452F8045BA24241F8045B1F
:10410000F9D10AE0104A00A9194402F1280452F832
:10411000045BA24241F8045BF9D128334000B3F5B7
:10412000A07FC0B2E0D1694650AA0848A02304F09D
:10413000C7FE062050A9A0220023FFF76DFF0DF552
:10414000217D30BDB4A900085EA9000860500020A0
:104150002DE9F04703F1020CBDF920A00133BDF9B0
:1041600024901FFA8CFC9BB20027BCB2ACF1020673
:104170008C42B6B24FD2294C00F10C0534F81580B0
:10418000C9F10004CAEB08080FFA88F8A0454FEA05
:10419000E605234C06F0070607DA14F80680565D9C
:1041A00026EA08065655DD101DE0B8F1000F07DAC3
:1041B00014F80680565D26EA08065655DD1009E01B
:1041C000C845A65D12F8058048EA060656554FEA2E
:1041D000E30508DA03F00706A65D2C46555D25EADF
:1041E0000605155506E003F00708565D14F808406B
:1041F00034435455441DA4B2B4F5166F24BFA0F641
:104200005B1084B20CF1020C023301371FFA8CFCF4
:104210009BB22046A9E7BDE8F08700BF2C590020DB
:1042200018A900082DE9FF41634C41F2D823E35A55
:10423000624804EB83035B68C3F31303584004F044
:10424000F9F9032800F2B38041F2DA23E05A0021A1
:1042500000F60116B6B2B6F5166F26BFA0F15F02E2
:1042600092B232460D464FF47A574CF2801CDFF87A
:10427000548102F10C0334F9133011F908800FFA5C
:104280008CFC3FB29C45B8BF9C469F42A8BF1F46CE
:10429000B8F1010F1FFA8CFCBFB20AD0B8F1030FBE
:1042A00005D0B8F1FF3F06D003EB430303E003EB77
:1042B0004303ED1A00E01D44531D9BB2B3F5166F86
:1042C00028BFA2F65B1201F1010128BF93B21429A5
:1042D00001D01A46CBE741F2E822A258364B95426C
:1042E00065DD41F234329A5C632A13D10FFA8CFCFB
:1042F0003FB267447F1041F210329F52C7EB0C0C63
:1043000044F63E1707FB0CFC41F232324FEAEC3C1C
:1043100023F802C041F21033E35EB6F5166F009346
:1043200041F2323328BFA0F15F06E35E28BFB6B288
:1043300002AF019314213A4600233046FFF708FFED
:104340002378002B4FF0000314BF042202221946E9
:104350001B4813F800C0F85C01338CEA0000DFF85A
:1043600068C0052B1CF800000144C9B2F0D191428D
:104370001DD841F2E821655041F2EC21635241F22F
:10438000DA23E35A0C4A03F6FB0080B202F5975198
:10439000B0F5166F0B8041F2DC21665228BF653BF9
:1043A00041F2DE2134BF50525352012000E0002080
:1043B00004B0BDE8F08100BF2C590020ADB5070066
:1043C000A7A900088AA8000812A60008034B1A78BB
:1043D00082421CBF024A106018707047BD0900205D
:1043E0009481214238B50546094804F0F3F82028A5
:1043F00009D900242B1906485978013403F0BFFF6E
:10440000212CF7D101E0052038BD002038BD00BFC8
:104410008CAF0020114BD98C9A8C89B292B2914208
:1044200004D193F8282092B9188B11E0D98C9A8C7A
:1044300089B292B2914205D29A8CD88C198B80B2F3
:10444000084401E0D88C9A8C801A80B200E00020E9
:104450001B8B834238BF0020704700BF80B4002010
:1044600030B51F4B1F4A03F1200153F8044B8B4218
:1044700042F8044BF9D11B780001137040F0090099
:10448000194BC0B233F81020184BD1B293F85940F1
:10449000920A24F03F0444EA900093F85A4083F8CB
:1044A000590004F00F04880800F0300544F040047F
:1044B0002C4383F85A4093F8604000F00F0024F03A
:1044C0000F04204383F8600093F8610002F03C027F
:1044D00000F0030040EA8111114383F8611030BD00
:1044E00086A9000815530020DCA90008C852002046
:1044F000144B1B785A1E51425141134A981E1160A9
:1045000041424141B3F1030C42F8041CDCF10001CB
:1045100051EB0C01181F516041424141B3F1050CB0
:104520009160DCF1000151EB0C01981FD160414218
:104530004141B3F10A0CDCF1000353EB0C031161B0
:10454000D3617047BC0900209C81214238B50546E3
:10455000094804F03FF82F2809D900242B190648F0
:104560005978013403F00BFF302CF7D101E005201E
:1045700038BD002038BD00BFEC21002070B50646D4
:104580000D480D4604F026F8A84212D3013D0A4812
:10459000E9B203F0F4FE0024E3B2AB4204F10104FB
:1045A00005D233445978044803F0E9FEF4E70020CB
:1045B00070BD052070BD00BFB453002070B5002150
:1045C00006460C22134805F043F80023124A134C08
:1045D0009D5CD91003F00702715CA25C11424FEAA6
:1045E000E5020F4905F0070505D08818645D90F8CD
:1045F0007B00044305E08818645D90F87B0020EAA6
:10460000040401330A44442B82F87B40DED10020AD
:1046100070BD00BF43530020D4A8000863A8000861
:10462000C8520020222970B506461ED1124803F058
:10463000D1FF20281BD9114C94F8E9302BB100236D
:10464000238384F8E93063832377002573190A48AC
:104650005978013503F093FE212DF7D1084B1878D6
:1046600038B9012384F84C3070BD042070BD05209A
:1046700070BD002070BD00BFD8520020C85200207D
:10468000BE09002043681BB102680AB102334360CF
:10469000704700002DE9F04703F1020CBDF92090AE
:1046A0000133BDF924801FFA8CFC9BB20027BCB2F9
:1046B000ACF102068C42B6B250D2294C00F10C0586
:1046C00034F815A0C8F10004C9EB0A0A0FFA8AFAF7
:1046D000A2454FEAE605234C06F0070607DA14F870
:1046E00006A0565D26EA0A065655DD101DE0BAF111
:1046F000000F07DA14F806A0565D26EA0A0656559A
:10470000DD1009E0C245A65D12F805A04AEA0606DA
:1047100056554FEAE30508DA03F00706A65D2C4676
:10472000555D25EA0605155506E003F0070A565DB6
:1047300014F80A4034435455441DA4B2B4F5875FBD
:1047400003D3A0F586501B3884B20CF1020C02335F
:1047500001371FFA8CFC9BB22046A8E7BDE8F08722
:104760001C2A0020CCA800082DE9F04703F1020C18
:10477000BDF920A00133BDF924901FFA8CFC9BB237
:104780000027BCB2ACF102068C42B6B24FD2294C23
:10479000F51004EB4004B4F81680C9F10004CAEB2C
:1047A00008080FFA88F8A04506F00706224C07DA39
:1047B00014F80680565D26EA08065655DD101DE001
:1047C000B8F1000F07DA14F80680565D26EA0806ED
:1047D0005655DD1009E0C845A65D12F8058048EA87
:1047E000060656554FEAE30508DA03F00706A65D0C
:1047F0002C46555D25EA0605155506E003F0070829
:10480000565D14F808403443545500F10A04A4B22C
:10481000B4F5F06F24BFA0F2767084B20CF1020CF4
:10482000023301371FFA8CFC9BB22046A9E7BDE892
:10483000F08700BFC0090020ACA900082DE9F043B3
:104840009E1CB6B2013306EB4101BDF91C90BDF9C7
:1048500020809BB289B2B71E8E42BFB24BD0274C8C
:10486000FD1004EB4004B4F814C0C8F10004C9EB17
:104870000C0C0FFA8CFCA44507F00707204C07DA54
:1048800014F807C0575D27EA0C075755DD101DE0E7
:10489000BCF1000F07DA14F807C0575D27EA0C07D0
:1048A0005755DD1009E0C445E75D12F805C04CEA34
:1048B000070757554FEAE30508DA03F00707E75DF6
:1048C0002C46555D25EA0705155506E003F0070C53
:1048D000575D14F80C403C435455441DA4B2B4F544
:1048E000257F24BFA0F28F2084B202360233B6B2F5
:1048F0009BB22046AFE7BDE8F08300BF9C1C0020C0
:10490000A5A8000870B5414C96B0204603F058FDAC
:1049100018B9B4F87035002B75D0B4F870553B4811
:1049200035BB3B4B1B7883B9B0F8742599B29142E3
:1049300005D22144772081F8C0000133F6E7A4F8BE
:1049400070250023A4F8723512E003F004FD06463A
:10495000EBB2B342F5D22D4803F0FDFCB4F870354C
:1049600001355A1C2344A4F8702583F8C000EFE7F2
:10497000B4F87035002B46D0FFF74CFD0546142DDA
:1049800041D9B4F872355A1C2344A4F8722593F81F
:10499000C020002302F0C001802908D0C02903D024
:1049A00041B94FF65C6107E040F2EC4104E04FF49E
:1049B000D27101E04FF614312DF80310023392004A
:1049C000082BD2B2E6D11348694602AA042304F0A8
:1049D0008DF8114802A90CAA142304F071FA0CA94D
:1049E000142200230420FFF717FBB4F87215B4F863
:1049F0007025143D9142ADB2044BC0D30022A3F800
:104A00007225A3F8702516B070BD00BFB453002006
:104A1000BE090020C4530020D053002030B5484CBC
:104A2000ABB0204603F0CCFC20B9B4F88435002BA1
:104A300000F08380B4F88435ABBB424B1A78FAB9E6
:104A40003F4BB3F8883591B2994205D221445F209B
:104A500081F8D4000132F6E7E218572182F8D41029
:104A60005A1C92B22244752182F8D410DA1C023307
:104A70009BB2A4F884252344FD2283F8D4200FE0C0
:104A800030252F4803F067FCB4F88435013D5A1CEB
:104A900015F0FF052344A4F8842583F8D400F0D151
:104AA0000023A4F88635B4F88435002B45D0FFF7F1
:104AB000B1FC0546282D40D9B4F886355A1C23444C
:104AC000A4F8862593F8D420002302F0C0018029A1
:104AD00008D0C02903D039B94FF60B7106E040F277
:104AE000DF2103E0F52101E04FF621512DF80310FD
:104AF00002339200082BD2B2E7D11348694602AACA
:104B0000042303F0F3FF114802A916AA282304F096
:104B1000D7F916A9282200230520FFF77DFAB4F85B
:104B20008615B4F88425283D9142ADB2044BC1D31B
:104B30000022A3F88625A3F884252BB030BD00BF42
:104B4000EC210020BE090020FC21002008220020CA
:104B50002DE9F047AA4CB6B0204603F031FC20B94D
:104B6000B4F89C32002B00F0B2816289636892B283
:104B70009A5CA34D02F0FF03002A40F02781B5F8AC
:104B80009C62002E40F068819E4B1B786BB9B5F893
:104B9000A02299B2914205D22144AA2081F8440072
:104BA0000133F6E7A4F89C220CE1284603F0D3FB7E
:104BB0003546934803F0CFFB0DF805000135292D4C
:104BC000F7D1002200230BA920AE5354B1180132B3
:104BD000532A8B70F6D11A4619461DF803801746E2
:104BE00018010A4600250121A94018EA010F0CBF4F
:104BF0000021012101EB070C17440F44FF070CF0C3
:104C0000010C0FD5DFF8089200F0070719F807A08C
:104C10000DF1D80909EBD00717F8AC9C4AEA09094D
:104C200007F8AC9CBCF1000F11D000F1010C0DF1A4
:104C3000D80909EBDC07DFF8D8910CF0070C19F85C
:104C40000C9017F8ACCC49EA0C0C07F8ACCC013549
:104C5000082D00F1020002D017460A46C3E70133CF
:104C60002A2BBAD1684B002136A800EBD10212F8EA
:104C7000AC2C10060ED513F80D7C4FF0010C0CFA7D
:104C800007F713F80E0C0DF1820515F800C047EA7E
:104C90000C072F5455060ED513F80B7C4FF0010C62
:104CA0000CFA07F713F80C0C0DF1820515F800C08B
:104CB00047EA0C072F5490060ED513F8097C4FF0E5
:104CC000010C0CFA07F713F80A0C0DF1820515F820
:104CD00000C047EA0C072F54D7060ED513F8077CFF
:104CE0004FF0010C0CFA07F713F8080C0DF18205D0
:104CF00015F800C047EA0C072F54B1F5247F41D0C6
:104D000015070ED513F8057C4FF0010C0CFA07F7C8
:104D100013F8060C0DF1820515F800C047EA0C07E0
:104D20002F5450070ED513F8037C4FF0010C0CFAEA
:104D300007F713F8040C0DF1820515F800C047EAD7
:104D40000C072F5497070ED513F8017C4FF0010C78
:104D50000CFA07F713F8020C0DF1820515F800C0E4
:104D600047EA0C072F54D50709D55D78012707FAC4
:104D700005F51A780DF18200875C3D4385540831B2
:104D8000103371E700232149F2189078595C013300
:104D90004140532B9170F6D1EA238DF88030B4F85E
:104DA0009C22A6238DF881300023D118F05C89B2B3
:104DB00001332144552B81F84400F6D1104B553274
:104DC000A3F89C220023A4F89E3245E0012B21D1B8
:104DD000B5F89C32002B3FD1284603F0BCFA0C25D5
:104DE000B4F89C620648731CA4F89C3203F0B3FA32
:104DF000013D264415F0FF0586F84400F0D1E1E7B7
:104E000078270020BE090020EAAB00080CB100089A
:104E100004B10008022B1FD1B5F89C32E3B9284633
:104E200003F099FAB5F89C3203F1120080B2002227
:104E3000284E9D18965DADB201322544062A2649BA
:104E400085F84460F4D106339BB28342EFD1A1F8D8
:104E50009C320023A1F89E32B4F89C32002B36D04D
:104E6000FFF7D8FA0546282D31D9B4F89E325A1CDE
:104E70002344A4F89E2293F844000122002302EA6E
:104E8000000191420CBF4FF6B74640F249360BA9DC
:104E9000CE5202335200102BD2B2F0D10F4820AACA
:104EA000082303F023FE20A9282200230120FFF776
:104EB000B3F8B4F89E12B4F89C22283D9142ADB2EA
:104EC000054BD0D30022A3F89E22A3F89C2236B033
:104ED000BDE8F08721B2000878270020882700204D
:104EE0002DE9F043074691B088460026A84C38F8D3
:104EF0000610D4F8743FBA5B0B44C4F8743FB4F89E
:104F0000783F12F4004F03F10103A4F8783FB4F89E
:104F1000163FA14604EB430359889D4D4FEA4101DA
:104F200089B218BF41F001015980B4F8183F04EB71
:104F30004301CA822278012A40F03E81B5F8201F41
:104F4000B5F8222F914206D28B4207D3934205D85F
:104F5000FEF738F802E08B42F8D3F9E7B4F8181FEF
:104F6000B4F81C2F8A4B914240F06881B3F8282F87
:104F7000062A16D1B3F81E2F02F27F7189B2B1F55D
:104F8000F06F28BF02F1FF31A3F8201F531C9BB222
:104F9000B3F5F06F2ABFA2F27F72A4F8223FA4F803
:104FA000222F4CF280124FF47A50B4F81A1F4FF0AF
:104FB000C00C0546964609EB4103B3F91630002BA9
:104FC0000CDD0FFA8EFE2DB27345A8BF9E46AB4294
:104FD000B8BF1D461FFA8EFEADB209E000B212B294
:104FE0008342B8BF18469342A8BF1A4680B292B215
:104FF00001F10A039BB2B3F5F06F0CF1FF3C28BF3F
:10500000A1F276711FFA8CFC28BF8BB2BCF1000FA5
:1050100001D01946CFE70FFA8EF12DB200B212B2CD
:1050200029440244491052108D186D101FFA85F959
:105030004D1BADB22BB2009356480FFA89F3FDF722
:10504000BDFA94F8702F524B632A0CD103F62A72E2
:1050500003F64A7322F8029F9A425584FAD100233C
:1050600084F8703F0BE003EB42010132D2B20F2A09
:10507000A1F82C9FA1F84E5F83F8702FEFD8464B14
:105080000022A4F84C2FA4F86E2F03F12000114643
:1050900033F8025F2A445D8C8342294492B289B27C
:1050A00002D092B289B2F3E741F30B1342F30B1231
:1050B00092B29BB2A4F84C2FA4F86E3F3748B4F9D3
:1050C0001E1F12B21BB201F0B7FCB4F94C3FB4F88A
:1050D0001A0F0093B4F96E3FC021019303AA08236D
:1050E000FFF742FBB4F8285FDFF8A490013DADB2B2
:1050F000A4F8285F5DBB2A4801F0EAFC2846FFF7C8
:1051000065F9284B83F82153274B1B78052B00D0DA
:105110008BB9264B1B7873B1E0238DF808304123FF
:1051200003218DF80A3002A8214B8DF80910984709
:10513000204B00221A6042F20F720023A4F81C2FA9
:105140006322237084F8702F84F82A3F1DE06B1FC0
:105150005D425D41B9F8783F8DF80C5063B1D9F8E4
:10516000742F03A8B2FBF3F3C3F307228DF83D209D
:105170008DF83E30332101E003A83121FDF78AFB91
:105180000023C4F8743FA4F8783FC4F8243F55E0E6
:10519000C009002067B10008EA18002088B10008A3
:1051A000B0B1000880B40020BC0900201E0200201D
:1051B000FD02002018002742FDF704FF98B195F882
:1051C0002A3F83B90120C5F8743FA5F8783FFFF75F
:1051D000FDF8294B012283F82123632385F8703FD2
:1051E000052385F82A3F94F82A3F1BB1234A013B47
:1051F00082F82A3F94F82A3F204A012B1ED1B2F8A8
:105200001E3F03F27F7189B2B1F5F06F28BF03F141
:10521000FF31A2F8201F5A1C92B2B2F5F06F24BFE2
:10522000A3F27F73A4F8223F4FF0010323704FF0E5
:10523000000338BFA4F8222F84F82A3FB4F8182FAF
:105240000E4B013292B2B2F5F06F28BF0022A3F8E4
:10525000182FB4F8162F094B013292B2092A06F121
:10526000020688BF0022042EA3F8162F7FF43EAE5C
:1052700011B0BDE8F08300BF80B40020C009002059
:105280002DE9F04FBDB003908B460026039BDFF85D
:10529000AC829A5B3BF80610994DD8F8003005F5C2
:1052A00009570B44C8F800303B88A7F1680901335F
:1052B0003B80B9F80030100405EB83035968914C2A
:1052C0004FEA410148BF41F001015960238803F1D1
:1052D0000C0125F811202A78012A02D0022A16D0C2
:1052E000B8E021896289914206D28B4207D393426A
:1052F00005D8FDF771FD02E08B42F8D3F9E722886B
:1053000063899A4240F0E08002F048F8DCE02189AD
:105310006289914206D28B4207D3934205D8FDF7AA
:105320005BFD02E08B42F8D3F9E7DFF8FCA12188AE
:10533000BAF80020914240F0C780BAF81020052A40
:1053400015D1BAF8082002F586511F3189B2B1F59E
:10535000875F28BF02F1FF312181511C89B2B1F56D
:10536000875F25BFA2F586521F3A61816281664C34
:105370004FF45871208801F075FFBAF9081063489E
:10538000B4F93620B4F9583001F056FBB4F9363090
:1053900020880093B4F958304FF45871019305AA4E
:1053A0000823FFF777F9638A013B1FFA83FAA4F811
:1053B00012A0BAF1000F2DD1554801F089FB5046DB
:1053C000FFF704F8534B544A1B7882F821A313F0DB
:1053D000FB0710D1514B1B786BB1E0238DF81030D7
:1053E000322303218DF8123004A84D4B8DF8111093
:1053F00098474C4B1F604C4B42F20F7100221980B2
:1054000063212A7083F858109A74C4F80E2083F828
:10541000622059E0BAF10402534253418DF814302E
:105420003B8863B1D8F8002005A8B2FBF3F3C3F3BF
:1054300007228DF8ED208DF8EE30DB2101E005A884
:10544000D921FDF737F90023C8F800303B80C4F8B4
:105450000E3039E0FDF7C0FC80B1237E73B9012026
:10546000C8F800303B80FEF7B1FF2B4B012283F8D8
:105470002123632384F85E300A232376237E13B12D
:105480002A4A013B1370237E012B1DD1284A138821
:1054900003F2BB7189B2B1F5875F28BFA3F625116E
:1054A00022F8041C03F2BD7189B2B1F5875F214A6D
:1054B00024BFA3F6231313804FF001032B704FF08A
:1054C000000338BF118023760E4B02361A88013252
:1054D00092B2B2F5875F29BF00221A801A8083F842
:1054E0006820B9F80020144B013292B2042A88BF18
:1054F0000022042E1A807FF4C9AE3DB0BDE8F08FC3
:105500001C2A0020F64B0020FA4B0020D2B10008E4
:1055100000B20008BC09002080B400201C0200205A
:10552000FD02002018002742FC4B00200E4C0020FA
:10553000024C0020004C0020F44B0020584C00206E
:105540005F2810B504464CD020D8052841D00ED88D
:1055500002283AD005D8012851D14E4801F0B8FAB6
:10556000C6E0032833D0042849D14B4844E05B28E7
:1055700041D005D806282ED00A2840D147483BE024
:105580005C2836D05D283AD1454835E066282ED0D3
:105590000CD8622823D003D8602830D141482BE0B2
:1055A00063281AD065282AD13F4825E069281CD0F5
:1055B00005D8672817D0682821D13C481CE06A2804
:1055C00015D06B281BD13A4816E03A4814E03A4807
:1055D00012E03A4810E03A480EE03A480CE03A4807
:1055E0000AE03A4808E03A4806E03A4804E03A4817
:1055F00002E03A4800E03A4801F06AFA04E039482B
:1056000001F066FA012C73D0374B0022022C1A608D
:105610001A715A719A601A675A67C3F85823A3F827
:105620005C2365D1314B002241F2DA215A5241F21A
:10563000D8215A5241F2E8215A50632041F23431C4
:10564000585442F20F7141F2DC20195241F2DE202F
:10565000195203F59750018041F2E220195241F2AC
:10566000E420195241F210315A5241F232315A5269
:1056700041F2EC215A5241F2EE215A5441F23831B2
:105680005A50042C41F23C311A705A5200F0C38037
:1056900083E000BF86B90008B3B90008E7B9000885
:1056A00001BB00082DBA00086BBB0008A4BA0008B3
:1056B000E2BA000876B9000899B90008C3B9000831
:1056C000D4B90008F6B9000813BA000848BA0008AF
:1056D00083BA0008C3BA000864BA000823BB0008F4
:1056E00048BB000888BB00083C1900202C5900204A
:1056F000774A002342F20F71A2F83E35A2F83C35FA
:10570000C2F84435A2F84A35A2F84835A2F8401547
:10571000704A41F27850A2F8583BC2F8603B82F8D8
:10572000753B82F8763B82F8783BA2F85A3BA2F8A8
:105730005C1B694A032C135241F27650135241F21A
:105740007E50135241F27450135202F5AC50036074
:1057500041F29550135441F29650135441F29A502D
:10576000135441F27A50A2F82437A2F82237A2F853
:105770002A37A2F82037C2F82C3782F8413782F84E
:10578000423782F84637A2F82637135241F27C534B
:10579000A2F82817D1527FF445AF504B002242F2B5
:1057A000DA115A5242F2D8115A5242F2EC115A50BE
:1057B000632042F23821585442F20F7142F2DC1059
:1057C000195242F2DE10195242F2E010195242F21E
:1057D000E610195242F2E810195242F2E210195240
:1057E00042F2E410195242F214215A5242F2362186
:1057F0005A5242F2F0115A5242F2F2115A5442F203
:105800003C215A5003F509510A80052C42F24221ED
:105810001A705A5425D0324B6321002283F8701F2E
:105820000A2C42F20F711A70A3F8182FA3F8162F42
:10583000C3F8242FA3F81A1FA3F81C1FA3F81E1FD8
:10584000A3F8201FA3F8221FA3F84C2FA3F86E2F54
:10585000A3F8282F83F82A2FC3F8742FA3F8782FE2
:1058600028D0204B002283F83428C3F83C28C3F802
:105870004428C3F85428C3F85C28C3F86428C3F844
:105880006C28C3F81028C3F8142883F81828A3F844
:105890000C2883F80024A3F8EC27A3F8F027A3F83A
:1058A000FA271A70A3F8EC23A3F8F023A3F8FA233D
:1058B00083F82A280C4B002283F8EC23A3F8E82372
:1058C000A3F8EA23094B1C70BDE81040FEF710BE98
:1058D0009C1C00207C8A0020AC6C00201C2A00202C
:1058E000C009002038A10020604C0020BC09002025
:1058F0002DE9F04FA5B0029003910024A74D039B22
:10590000029E1A5BD5F8583329461344C5F858331C
:10591000B5F85C330133A5F85C33325B2B79D20BDD
:10592000934209D02B68B3F5004F2ABF6FF4CC7CAB
:1059300003F2991363442B602E68984B06F54C5084
:105940003330B0F5803F2A7101D218607AE3A6F5B2
:105950004C40CD3818605879012853D003D3022821
:1059600000F0CA826EE3996849000AB141F0010172
:105970009960AD688A4825F07F45684002F05AFE7C
:105980000228864E10D8874801F0A2F806F10C00D4
:105990000021532203F05CFE00233367C6F858331E
:1059A000A6F85C33012395E27F48684002F042FE8E
:1059B0000546002840F046837C4801F089F8012024
:1059C000FEF704FD7A4B012283F82123794A06F180
:1059D0000C0310685168C6F8585303C39068A6F8C2
:1059E0005C531860A3F10800FDF7DCF906F10C0028
:1059F00029460E2203F02CFE4FF4165373673567C9
:105A0000022367E2986840009860002A00F0218332
:105A100040F001009860186F674EC208134400F010
:105A20000700305C1B7B03430A4413732B6F013365
:105A3000B3F5257F2B6740F0058300235F48CA1824
:105A4000167B185C01337040532B1073F6D1002382
:105A500000200FAA98540133542BF9D1584B01EB75
:105A6000E002127BD6070FD513F80E6C24AF3E442C
:105A700013F80D7C4FF0800C2CFA07F716F854CC75
:105A800047EA0C0706F8547C97070FD513F80C6CFF
:105A900024AF3E4413F80B7C4FF0800C2CFA07F730
:105AA00016F854CC47EA0C0706F8547C56070FD575
:105AB00013F80A6C24AF3E4413F8097C4FF0800CB5
:105AC0002CFA07F716F854CC47EA0C0706F8547C72
:105AD00017070FD513F8086C24AF3E4413F8077C62
