:020000040800F2
:100000000000022011C500080DC500080DC500083C
:100010000DC500080DC500080DC500080000000052
:100020000000000000000000000000000DC50008F6
:100030000DC50008000000000DC500080DC5000832
:100040000DC500080DC500080DC500080DC5000848
:100050000DC500080DC500080DC500080DC5000838
:100060000DC500080DC500080DC500080DC5000828
:100070000DC500080DC500080DC500080DC5000818
:100080000DC500080DC500080DC500080DC5000808
:100090000DC500080DC500080DC500080DC50008F8
:1000A0000DC500080DC500080DC500080DC50008E8
:1000B000290600080DC500080DC500080DC500087B
:1000C0000DC500080DC500080DC500080DC50008C8
:1000D0000DC50008799400080DC500080DC500087D
:1000E0000DC500080DC500080DC500080DC50008A8
:1000F0000DC500080DC500080DC500080DC5000898
:100100000DC500080DC500080DC500080DC5000887
:100110000DC50008559700080DC500080DC500085D
:100120000DC500080DC500080DC500080DC5000867
:100130000DC500080DC500080DC500080DC5000857
:100140000DC500080DC500080DC500080DC5000847
:100150000DC500080DC500080DC500080DC5000837
:100160000DC500080DC500080DC500080DC5000827
:100170000DC500080DC500080DC500080DC5000817
:100180000DC500080DC50008044B05481B1A062BB9
:1001900002D9044B03B11847704700BF9F060020E7
:1001A0009C0600200000000005490648091A891035
:1001B00001EBD171491002D0034B03B118477047CE
:1001C0009C0600209C0600200000000010B5064C94
:1001D000237843B9FFF7D8FF044B13B10448AFF3BA
:1001E00000800123237010BDA00600200000000045
:1001F000B870040808B5084B1BB108490848AFF3AC
:1002000000800848036813B9BDE80840CCE7064BF6
:10021000002BF9D09847F7E700000000A406002063
:10022000B87004089806002000000000134B002B53
:1002300008BF114B9D46A3F5803A00218B460F461F
:100240001148124A121A0CF09FFF0D4B002B00D0E0
:1002500098470C4B002B00D0984700200021040049
:100260000D000B480CF08AFE0CF0BCFE20002900AB
:1002700003F042FA0CF088FE0000080000000000C5
:100280000000000000000000A00600209CBD00202F
:10029000B1CF000838B54FF4B971044604F11C051C
:1002A00006F007FD002222616261A26104F13C03B5
:1002B000294621F8022B8B42FBD104F2EC410022AB
:1002C00003F8012B9942FBD1F023A4F8EC24A4F805
:1002D000EE24C4F8F0342022002128460CF054FF0C
:1002E0000523237409236382024B6361A5612046C1
:1002F00038BD00BF04000020222A70B506460C4617
:100300000ED106F0E8FC20280CD904F1210514F8E0
:10031000011F304606F020FDAC42F8D1002070BD30
:10032000042070BD052070BDF0B58FB00A460023D3
:1003300002A94FF4E37540F252564FF6AE274FF63E
:100340003A6E02F0C004802C1DD0C02C18D0002CB6
:100350000CBF74463C4621F8134001339200042B35
:10036000D2B2EED104AA10300CF036F9002300937B
:1003700004AA14230221054802F09AFD0FB0F0BD33
:1003800021F81360E9E721F81350E6E7B859002097
:10039000B0F8EC3470B5044633B906F0BDFCA0BB30
:1003A000B4F8EC34002B4BD0264802F0E3FD0546B0
:1003B000142D45D9B4F8EE345A1C2344A4F8EE2485
:1003C00093F83C102046FFF7AFFFB4F8EE24B4F8E2
:1003D000EC34143D9A42ADB2EADB0023A4F8EE34CB
:1003E000A4F8EC3470BDD4F8F0245F20591C9BB203
:1003F000934204D2234483F83C000B46F6E7A4F86A
:10040000EC240023A4F8EE34CAE70F4B1B78002B32
:10041000E9D004F13C0504F15D06204606F0C1FC7C
:1004200005F8010BAE42F8D1084900235A5C05F8E3
:10043000012B0133272BF9D14823A4F8EC34E0E752
:1004400070BD00BFB8590020EE5C002014D8000831
:1004500008B506F040FC2323B0FBF3F0C0B208BDA2
:100460000C234FF4167203FB0121B1F5966F8ABF7E
:100470004FF49663C0F8F014C0F8F03470470000F1
:10048000F7B50225454E684609F07AFF0027284651
:10049000012101248DF805508DF806708DF8075064
:1004A0000AF04EFC4FF480536946304600938DF8B5
:1004B000044009F017FF214628460AF041FC20239A
:1004C0006946304600938DF8044009F00BFF214641
:1004D00028460AF035FC10236946304600938DF813
:1004E000044009F0FFFE214628460AF029FC4FF49B
:1004F00000536946304600938DF8047009F0F2FE0F
:10050000214628460AF01CFC8023694630460093A9
:100510008DF8044009F0E6FE214628460AF010FC5A
:1005200040236946304600938DF8044009F0DAFE16
:10053000214628460AF004FC4FF480736946304691
:1005400000938DF8044009F0CDFE214628460AF0BC
:10055000F7FB4FF400736946304600938DF8044072
:1005600009F0C0FE214628460AF0EAFB4FF48063FA
:100570006946304600938DF8044009F0B3FE2146E9
:1005800028460AF0DDFB4FF40063694630460093CD
:100590008DF8044009F0A6FE03B0F0BD000402404F
:1005A00037B54FF4006300240DF105020DF106018B
:1005B00005461830ADF806308DF8054000F0E3FA36
:1005C000BDF80610204609F07FFF022114480BF009
:1005D00098FEE0B9ADF806000446022110480BF081
:1005E00096FE0F480BF0BAFD9DF80520BDF80610E9
:1005F000281D00F0A1FA214605F12C0006F072FC3E
:10060000D5F82C330133C5F82C3303B030BD044882
:100610000BF0D0FDADF8060002480BF0CBFDDBE798
:10062000002001400021014008B501214FF0804029
:100630000BF0F6FB48B14FF0804001210BF0FBFBC3
:100640000248BDE80840FFF7ABBF08BDB85900201D
:100650002DE9F041022194B070480BF052FE10B128
:100660006F48FFF79DFF01A809F08AFE06A80BF06E
:10067000F7FC0EA80BF0D6FC012102200AF060FB6B
:1006800001214FF48070002401250AF089FB032624
:1006900001A9644801958DF808608DF80B4009F0B8
:1006A00021FE294602200AF04BFB29464FF4007038
:1006B0000AF076FB4FF0020801A95A48CDF80480F1
:1006C0008DF808608DF80B4009F00CFE062306A893
:1006D00006930794089409940BF0AEFC0EA94F48BA
:1006E0000E948DF83C408DF83D4010941194129476
:1006F0008DF84C500BF070FC294648480BF037FD44
:1007000023462A46082145480BF0E2FC2946434887
:100710000BF0ACFC0EA944480BF05EFC29464248A5
:100720000BF025FD23462A4609213F480BF0D0FC5B
:1007300029463D480BF09AFC01A809F021FE0AA8C1
:1007400009F090FE294628460AF0FAFA29464FF0A9
:1007500000500AF019FB102701A9344801978DF8C1
:1007600008608DF80B4009F0BDFD0AA920460A94E7
:100770000B940D9409F060FE2946204609F078FE9E
:10078000294628460AF000FB2A460F21274809F08F
:1007900033FE4FF4004301A9244801938DF80880EB
:1007A00009F0A0FD03A80AF0B9FF40F28F1303A9D6
:1007B0004FF08040ADF80C300495ADF80E40ADF828
:1007C00014408DF816400AF06BFF2346224621465E
:1007D0004FF080400BF0BBFB29464FF080400AF001
:1007E000F4FF2A4629464FF080400BF035FB1C23CE
:1007F00068468DF800308DF801408DF802508DF874
:1008000003500AF00DFC2021064809F0E8FD3946A6
:10081000044809F0E2FD14B0BDE8F0810020014079
:10082000B8590020000402400021014000000240AD
:1008300008B54FF40051034809F0BDFD431E58426E
:10084000584108BD000402400A460248102109F040
:10085000C8BD00BF000402400A4602484FF4805160
:1008600009F0BFBD000402400A460248202109F0F9
:10087000B8BD00BF000402400A460248802109F0CA
:10088000B0BD00BF000402400A460248402109F002
:10089000A8BD00BF000402400A4602484FF4807120
:1008A00009F09FBD000402400A4602484FF400715F
:1008B00009F097BD000402400A4602484FF48061E7
:1008C00009F08FBD000402400A4602484FF400615F
:1008D00009F087BD0004024038B5074C0D460A46B2
:1008E0002046802109F07DFD2A4620464FF4807184
:1008F000BDE8384009F075BD00040240064B1A6897
:1009000040F6B833B2FBF3F221B11346013BFDD1FF
:100910000139F9E7704700BF2C06002030B50022EE
:1009200000240025C0E900458260C2600282426165
:100930008261027730BD0000F0B500250024C0E9D7
:1009400000450D4D322C26460CD0013405EB041722
:1009500017F8107C8F42F5D105EB0615D5E9024555
:10096000C0E90045D0E9004554EA05011DBF826099
:10097000C36000200420F0BD40D800082DE9F743F3
:10098000044601EB6101636965682768D4F818E0E3
:10099000007FA3614FEAE37903FB05F207FB09221D
:1009A000A3FB078991444FEAD87242EA490202F355
:1009B0001E02CEEB42021144228A6161013292B2E0
:1009C00041F2707E00F0FE0672452677228250D1F9
:1009D00081FB01894FEAD87E4EEA490E83FB0389E9
:1009E0004FEAD87C4CEA490C83FB01894FEAD8785E
:1009F00048EA490808F31E034FEAE3795D4307FB21
:100A00000955A3FB078900F00203002BA944A36842
:100A10000EF31E0E0CF31E0C4FEAD872E64418BFFC
:100A2000E36842EA490202F31E02AEEB420214BF3F
:100A3000012500259A42B8BF20F0030046F00101CD
:100A4000B4BF40F0010046F003062177ACBF267723
:100A50002077217FC1F340018D4206D000911BB267
:100A600012B20649064801F02CFF0023238263617D
:100A7000A361207F03B0BDE8F08300BF60DB000806
:100A8000049C002000234361836103770382704745
:100A900038B504460023218083814374C3810374E5
:100AA00048000D460CF026FA606028460CF022FA49
:100AB000A060204638BDC289838992B29BB29A4217
:100AC000028808D1037C002B0CBF10460020904206
:100AD000C8BF00207047C189838989B29BB29942FF
:100AE000B9BF8389C089C3898089BABF12FA80F0EF
:100AF000C01A181A80B2EAE7C289838992B29BB2FF
:100B00009A4205D1027C02F0FF039AB10088704737
:100B1000C289838992B29BB29A42A3BFC289838958
:100B200000888389B5BFC08910FA83F0181A801A2B
:100B300080B2704718467047037C30B503F0FF045D
:100B40001BB101234374002030BD838945689BB2EB
:100B500025F81310838981689BB2CA54838902885F
:100B600001339BB2838183899BB29342A8BF848166
:100B70008289C38992B29BB29A424FF0010308BFA7
:100B80000374184630BD10B503468489C089A4B2E9
:100B900080B2844204D11C7C04F0FF0004B910BD73
:100BA000D8895C6880B234F810000880D9899868C8
:100BB00089B2415C117000211974DA8918880132F8
:100BC00092B2DA81DA8992B2824200DBD9810120C5
:100BD00010BD03460022407C5A74704710B504468D
:100BE00008F05AF90023237563752361204610BD70
:100BF00038B5457D044655B9037D83B1012B11D02D
:100C0000237D0133DBB2012B88BF00232375637D75
:100C10000133DBB2022B88BF0023637538BD0903A3
:100C20000161EDE7036919430161C1F3072108F090
:100C300082F9A17C204608F07EF9E17C204608F08C
:100C40007AF92561DCE7000038B54FF47A61044693
:100C500004F11C0506F02DF8002222826261A261D7
:100C600004F5B873294621F8022B8B42FBD104F519
:100C70000E71002203F8012B9942FBD14823A4F8FE
:100C80003822A4F83A22A4F83C324FF4AA72002188
:100C900028460CF079FA06232382024B6561A36192
:100CA000204638BD5E00002008B5B0F838322BB9B8
:100CB00006F032F8003018BF012008BD012008BD41
:100CC000442A70B506460C460DD106F004F84328B8
:100CD0000BDD651E4334A54209D015F8011F3046CF
:100CE00006F03AF8F7E7042070BD052070BD00203B
:100CF00070BD00002DE9F041154FDFF85C80ADF5C7
:100D0000227D06460D46002405F080032822EBB123
:100D1000414602AB181928340CF09CF96D00B4F56B
:100D2000A07FEDB2F0D152AA02A906F11000A023D3
:100D30000BF04EFE0023009352AAA0230621054883
:100D400002F0B6F80DF5227DBDE8F0813946E0E706
:100D500080DB0008B8590020A8DB000838B504463D
:100D600005F0DAFFB4F83832B8BBB3BB38BDB4F81D
:100D70003C52AA219AB2AA4203F1010308DAB4F85C
:100D80003822501C2244A4F8380282F87011F1E78E
:100D90000023A4F83A32B4F838329BB31A4802F070
:100DA000E9F80546A02D2DD9B4F83A325A1C23444F
:100DB000A4F83A2293F870112046FFF79BFFB4F88D
:100DC0003A22B4F83832A03D9A42ADB2EADB0023B1
:100DD000A4F83A32A4F8383238BD002BDBD10B4AE4
:100DE0001278002AC3D04525013DD1D0204605F018
:100DF000D8FFB4F838325A1C2344A4F8382283F8B8
:100E00007001F1E738BD00BFB8590020EE5C00204A
:100E100001EB41014908483189B296298ABF9623DE
:100E2000A0F83C12A0F83C32704708B505F053FF1B
:100E30004423B0FBF3F0C0B208BD00220270428030
:100E4000704700001FB50446844803F0CFFB2378A9
:100E5000002B44D0814803F08FFC04283FD9804800
:100E6000002301A91A5C5A5401330C2BFAD1628871
:100E70001520B2FBF0F300FB13239BB213B3012A3E
:100E800007D130238DF80D3002238DF80E30DE238C
:100E900016E0022A04D134238DF80D301923F4E72B
:100EA000032A04D131238DF80D306F23EDE7042A96
:100EB00017D11F238DF80D302B238DF80E30F6231C
:100EC0008DF80F300C22654803F040FA638840F239
:100ED00076210133B3FBF1F201FB1233638004B0DE
:100EE00010BD052A07D132238DF80D3022238DF84D
:100EF0000E30B323E4E7062A07D124238DF80D3002
:100F00002A238DF80E30E023DAE7072A04D13323B1
:100F10008DF80D303B23EAE7082A01D1502360E029
:100F2000012B07D125238DF80D304F238DF80E307E
:100F30009323C5E7022B07D170238DF80D300B23C7
:100F40008DF80E30DA23BBE7032B07D125238DF86C
:100F50000D301D238DF80E30D623B1E7042B04D1BC
:100F600033238DF80D301B23C1E7052B07D1252333
:100F70008DF80D306F238DF80E30D723A0E7062BA8
:100F800001D13923E3E7072B07D125238DF80D3055
:100F90000C238DF80E30C72392E7082B07D150237E
:100FA0008DF80D306F238DF80E30D02388E7092A95
:100FB0004FD0092B04D125238DF80D301E23F2E7E5
:100FC0000A2A46D00A2B07D121238DF80D300C2395
:100FD0008DF80E30C22373E70B2A3AD00B2B04D1C5
:100FE00025238DF80D306F2381E70C2A31D00C2B8F
:100FF00004D13D238DF80D300223BCE70D2A28D003
:101000000D2B01D1252347E70E2A22D00E2B85D0A8
:101010000F2A1ED00F2B04D125238DF80D301B2352
:1010200098E7102A15D0102B07D123238DF80D3007
:101030001B238DF80E303A2342E7112A09D0112BD9
:1010400007D121238DF80D3025238DF80E30F5239F
:1010500036E716238DF80D302923F6E7D84D00200A
:10106000D0DB0008012A38B5044616D10B78012BD5
:101070000CBF01250025037809D12BB94380292213
:101080000749084803F03CF92570002038BD002BC3
:10109000FAD0044803F080F9F6E7042038BD00BF19
:1010A000DCDB0008D84D0020002202608280C28074
:1010B000704700002DE9F84F214E07469246002365
:1010C000322B37D016F833208A4203F101002FD19A
:1010D000DBB216EBC3062DD038687388BB8008B12D
:1010E0000BF00AFFB88840000BF004FF00250AEB64
:1010F0004A0238600AEB820A2946BB888CB29C42BD
:1011000001F1010B19DA28460BF0D8FE3A684FEAD4
:10111000E079A0FB0A010AFB0911C30F43EA41036E
:1011200003F30F0322F81430736859461D44E4E7B3
:101130000346C5E70420BDE8F88F0020BDE8F88F1E
:1011400008DC0008C3885A1C92B210B50468C2803B
:1011500034F913308488A242A4BF0022C28009B1AE
:101160005B421BB2184610BD0246002302F8013B49
:1011700000F2E93102F8013B8A42FBD1A0F8EA33E0
:10118000A0F8EC33A0F8EE33A0F8F033C0F8F43355
:10119000A0F8F833A0F8FA33A0F8FC33A0F8FE3337
:1011A000704700002DE9F74F0446DFF80481DFF8AF
:1011B00004910020A4F8EA03C5B211F805E0BEF1DD
:1011C000000F46D000260C27F5B27D4308EB05073B
:1011D00018F80550002D3AD0AE4506F10106F2D1BF
:1011E0003D7A01954FF0000C4FF0004E019E5FFAE2
:1011F0008CF5B5422BDAB4F8EA537E6804EBD50AD5
:101200003EEA060605F0070607BF9AF801B019F88E
:10121000066019F806B09AF801600CBF46EA0B06A2
:1012200026EA0B068AF8016040F2E236B5420CF17C
:10123000010C06D90023A4F8EA33042003B0BDE86A
:10124000F08F0135A4F8EA534FEA5E0ECEE7013085
:10125000B2E79DF83010D4F8F403A4F8FC139DF81D
:101260003410A4F8FE1345F6C051B1FBF2F2B1FB05
:10127000F3F3A4F8EE23A4F8F83308B10BF03CFE26
:10128000B4F8F8030BF036FEB4F8F813C4F8F4031E
:1012900000234C081D4601269FB28F4205DAA74263
:1012A00034BFC655C5550133F6E70020C6E700BF79
:1012B00098DD0008A8DF00080346007810B5002874
:1012C00039D0B3F8EC231F4C03EBD20002F0070136
:1012D0004078615C084007D0B3F8FA13D3F8F40300
:1012E000415C49B3B3F9FC03B3F8FA13B3F8F8431C
:1012F000013189B2A142A3F8FA13A4BF0021A3F8D7
:10130000FA13B3F8F013B3F8EE43013189B2A142F6
:10131000A3F8F0130FDB0132B3F8EA4392B20021D5
:10132000A242A3F8EC23A3F8F013A2BF1970A3F80C
:10133000EC13A3F8FA1310BDB3F8FC03404200B25B
:10134000D2E700BFA8DF00080346007810B50028E8
:1013500039D0B3F8EC231F4C03EBD20002F00701A5
:101360004078615C084007D0B3F8FA13D3F8F4036F
:10137000415C49B3B3F9FE03B3F8FA13B3F8F84389
:10138000013189B2A142A3F8FA13A4BF0021A3F846
:10139000FA13B3F8F013B3F8EE43013189B2A14266
:1013A000A3F8F0130FDB0132B3F8EA4392B2002145
:1013B000A242A3F8EC23A3F8F013A2BF1970A3F87C
:1013C000EC13A3F8FA1310BDB3F8FE03404200B2C9
:1013D000D2E700BFA8DF000800230370A0F8EC33B9
:1013E000A0F8F033A0F8FA33704700787047B0F8EF
:1013F000EC3343B9B0F8F0332BB9B0F8FA0300304E
:1014000018BF012070470120704708B50246FFF75A
:10141000EEFF38B901231370A2F8EC03A2F8F00331
:10142000A2F8FA0308BD000030B58BB0C57A047A83
:101430008378427801780995857A0895457A0795E9
:10144000E50904F07F0406950594C4790494847931
:1014500003944479029404790194C078009001EBDC
:101460008101024804F070F90BB030BD80500020BB
:1014700010B50246044600F58071002302F8013BD6
:101480008A42FBD184F8003184F8013184F80231BA
:101490004FF4B97104F5827005F00BFC204610BDC5
:1014A0001FB570228DF80E2082788DF80F20E02372
:1014B00000228DF80C300092042303AA01218DF83C
:1014C0000D3008F084FA05B05DF804FB1FB57F22EB
:1014D0008DF80A2082788DF80B20E02300228DF809
:1014E00008308DF80C1005230092012102AA8DF816
:1014F000093008F06CFA05B05DF804FB2DE9F047FF
:10150000824688B0794802F028F800228DF80F2032
:10151000774AE0238DF80C3011780D238DF80D30CB
:1015200001238DF80E30914609B18DF80F30714BC3
:101530001A7898462AB19DF80F3043F002038DF8CF
:101540000F306D4F3B782BB19DF80F3043F0040303
:101550008DF80F30694E33782BB19DF80F3043F082
:1015600008038DF80F30664D2B782BB19DF80F30A6
:1015700043F010038DF80F30624C23782BB19DF8A7
:101580000F3043F020038DF80F305F4B1B782BB1E9
:101590009DF80F3043F040038DF80F305B4B5348FC
:1015A0001B788DF810305A4B0DF10B021B788DF81B
:1015B00011300DF10A0101F0B8FF9DF80A302BB18E
:1015C0009DF8113043F002038DF81130474801F0C7
:1015D000C1FF28B19DF8113043F004038DF811309C
:1015E000424801F0B4FF28B19DF8113043F00803E0
:1015F0008DF811303D4801F0B7FF28B19DF811304A
:1016000043F010038DF811309DF80B302BB19DF88D
:10161000113043F020038DF811303E4B9DF811201E
:101620001B78002B14BF4023002313438DF8113087
:1016300099F80030002B3DD0374803F09DF88DF825
:10164000120098F80030002B3ED0344B1B78002B52
:1016500033D0334808F04EFB8DF81300304808F0C3
:1016600051FB8DF814003B789BB32E4802F012FA20
:101670008DF8150033787BB32B4802F03FFD8DF8D1
:1016800016002B785BB3294807F07CFE8DF8170015
:1016900023783BB32648FFF7C8FB8DF818000023DA
:1016A000009303AA0D230121504608F090F908B0D9
:1016B000BDE8F0878DF81230C3E70A231D488DF886
:1016C0001330FEF7C5FECCE78DF813308DF81430DB
:1016D000C9E78DF81530CDE78DF81630D1E78DF8D4
:1016E0001730D5E78DF81830D9E700BFB85900207A
:1016F000E1010020E0010020E7010020E5010020D9
:10170000E4010020E6010020E3010020ED5C002060
:10171000EE5C0020EC5C0020D84D0020E2010020AF
:101720008449002058B00020449400206C6C0020B4
:10173000C49900209822002010B5A8B0E0238DF8AD
:101740000830002201230D4C8DF80A208DF80B3053
:10175000D1B2131D615CDBB2013229B10DF1A00ED3
:10176000734403F8981CF3E7009102AA01218DF855
:10177000093008F02CF928B010BD00BFB0DF000818
:101780002DE9F04F072A99B039D94B788C790E782A
:101790008F7891F803E091F804C091F8058003EB8D
:1017A00083035B0004F00109C4F3400A0993C4F306
:1017B00080040020C51DEDB200F1010B18ABC0B2D2
:1017C0009542184404DA4D5D00F8345C5846F1E760
:1017D000002200F8342C099B0694CDF814A0CDF813
:1017E0001090CDF80C80CDF808C08DE880403246CE
:1017F0000BA9044803F044FF19B0BDE8F08F0420A2
:10180000FAE700BF805000202DE9F041052A92B090
:1018100016462BD94B78C8780A788F7891F804E06F
:1018200000EB800003EB830345005B000020441DB8
:10183000E4B2B44200F1010CC0B207DA0DF148087D
:1018400040440C5D00F8344C6046F0E712A90844AF
:10185000002100F8341CCDF808E00195009705A997
:10186000034803F04DFF12B0BDE8F0810420FAE711
:10187000805000200B2A02D90846FFF7D5BD04206E
:1018800070474FF4E132012108F076B830B5134BC0
:101890001B78012B91B01FD8114B1B78E3B1E023CB
:1018A0008DF80C3010238DF80E300024E31C651CDD
:1018B000E4B29442DBB207DA0DF1400E73440C5DE2
:1018C00003F8344C2C46F1E700220092012103AAD0
:1018D0008DF80D3008F07BF811B030BDED5C0020C4
:1018E000E101002030B5134B1B78012B89B01FD8C4
:1018F000114B1B78E3B1E0238DF80C3011238DF8E8
:101900000E300024E31C651CE4B29442DBB207DA1B
:101910000DF1200E73440C5D03F8144C2C46F1E7D6
:1019200000220092012103AA8DF80D3008F04FF833
:1019300009B030BDED5C0020E10100201FB50C4B6B
:101940001B78012B11D80B4B1B7873B11222E023AB
:101950008DF80E2000228DF80C300092032303AA8C
:1019600001218DF80D3008F032F805B05DF804FB68
:10197000ED5C0020E10100201FB50C4B1B78012B12
:1019800011D80B4B1B7873B11322E0238DF80E2076
:1019900000228DF80C300092032303AA01218DF858
:1019A0000D3008F014F805B05DF804FBED5C002084
:1019B000E101002070B51E46144B1C7814F0FD04A4
:1019C0008CB021D1124B1B78F3B1E02300298DF8A4
:1019D000083014BF1A2318238DF80A302146CC1C76
:1019E0004D1CC9B2B142E3B206DA0CAC1C44515CE6
:1019F00004F8281C2946F2E700220092012102AADD
:101A00008DF8093007F0E3FF0CB070BDED5C0020ED
:101A1000E00100201FB50E4B1B7813F0FD0214D11E
:101A20000C4B1B788BB100294FF0E00314BF1B2136
:101A300019218DF80C308DF80E100323009201212E
:101A400003AA8DF80D3007F0C2FF05B05DF804FB66
:101A5000ED5C0020E001002030B5144B1B78032B17
:101A6000A5B000D0FBB9124B1B78E3B1E0238DF891
:101A70000C3020238DF80E300024E31C651CE4B2EA
:101A80009442DBB207DA0DF1900E73440C5D03F85B
:101A9000844C2C46F1E700220092012103AA8DF824
:101AA0000D3007F094FF25B030BD00BFED5C002085
:101AB000E70100201FB50D4B1B78032B00D08BB91D
:101AC0000B4B1B7873B12122E0238DF80E200022EE
:101AD0008DF80C300092032303AA01218DF80D30FC
:101AE00007F075FF05B05DF804FB00BFED5C00205A
:101AF000E701002030B5134B1C7814F0FB04A1B0B3
:101B00001ED1114B1B78DBB1E0238DF80830302358
:101B10008DF80A30E31C651CE4B29442DBB207DAAC
:101B20000DF1800E73440C5D03F8784C2C46F1E700
:101B300000220092012102AA8DF8093007F047FF28
:101B400021B030BDED5C0020E501002030B5134B25
:101B50001C7814F0FB04C3B01ED1114B1B78DBB111
:101B6000E0238DF80C3031238DF80E30E31C651C1A
:101B7000E4B29442DBB207DA0DF5847E73440C5D67
:101B800003F8FC4C2C46F1E700220092012103AA45
:101B90008DF80D3007F01BFF43B030BDED5C002029
:101BA000E50100201FB50C4B1B7813F0FB0210D190
:101BB0000A4B1B786BB1E02332218DF80C308DF885
:101BC0000E1003230092012103AA8DF80D3007F0B7
:101BD000FEFE05B05DF804FBED5C0020E501002091
:101BE00030B5144B1B78052BA5B000D0FBB9124BB8
:101BF0001B78E3B1E0238DF80C3040238DF80E30D4
:101C00000024E31C651CE4B29442DBB207DA0DF158
:101C1000900E73440C5D03F8844C2C46F1E70022CF
:101C20000092012103AA8DF80D3007F0D0FE25B0F7
:101C300030BD00BFED5C0020E40100201FB50D4B5E
:101C40001B78052B00D08BB90B4B1B7873B141224D
:101C5000E0238DF80E2000228DF80C300092032333
:101C600003AA01218DF80D3007F0B1FE05B05DF833
:101C700004FB00BFED5C0020E401002030B5124BF6
:101C80001B78632BA5B01CD1E0238DF80C30082302
:101C90008DF80E300024E31C651CE4B29442DBB2E4
:101CA00007DA0DF1900E73440C5D03F8844C2C465A
:101CB000F1E700220092012103AA8DF80D3007F010
:101CC00086FE25B030BD00BFED5C002030B5124B64
:101CD0001B78602B8BB01CD1E0238DF808300923D2
:101CE0008DF80A300024E31C651CE4B29442DBB298
:101CF00007DA0DF1280E73440C5D03F8204C2C46D6
:101D0000F1E700220092012102AA8DF8093007F0C4
:101D10005EFE0BB030BD00BFED5C002010B590F84A
:101D20000231A4B0CBB1E0238DF80C30F1238DF853
:101D30000E300022D4B2D31C0C5DDBB201322CB1C8
:101D40000DF1900E734403F8844CF3E701210091E8
:101D500003AA8DF80D3007F03AFE24B010BD000044
:101D60005F2910B50C4600F0828023D8052976D073
:101D700011D802293DD008D801295ED042494348F4
:101D8000FFF7CCFF012C5CD037E0032965D0042994
:101D9000F4D13F492EE05B2973D005D8062960D0E5
:101DA0000A29EBD13B4925E05C2968D05D29E5D1C2
:101DB00039491FE0662960D00CD8622955D003D874
:101DC0006029DBD1354915E063294CD06529D5D18F
:101DD00033490FE069294ED005D8672949D06829D1
:101DE000CCD1304906E06A2947D06B29C6D12E49AB
:101DF00000E02E492548FFF791FF2D4806F0F7F83F
:101E0000022C1ED12B4805F0DAFC042C04D02A4801
:101E100004F074FA052C04D0284803F0B0F80A2C1A
:101E200002D0274803F0F6FB264808F0C3F9214604
:101E30002548BDE8104001F0B1B824491348FFF728
:101E40006DFF234801F058FE224805F0DDF82248D6
:101E500006F0F4FD032CDAD0D4E72049CAE7204984
:101E6000C8E72049C6E72049C4E72049C2E720491E
:101E7000C0E72049BEE72049BCE72049BAE720492E
:101E8000B8E72049B6E700BFFDE30008049C002046
:101E900028E200085CE2000876E30008A2E20008FD
:101EA000E0E3000819E3000857E30008EBE100084D
:101EB000704A0020189D002000720020F05C002075
:101EC00080500020EC070020B8590020FBE10008FA
:101ED0008C270020DC0B0020DC2C00200EE2000808
:101EE00038E2000849E200086BE2000888E20008D6
:101EF000BDE20008F8E2000838E30008D9E2000873
:101F000098E30008BDE300082DE9F04F142A9FB0C4
:101F100003D804201FB0BDE8F08F0D78C5F300137F
:101F200080F802318E78322EF3D891F803E04C78A5
:101F3000BEF1060F04F0020204F0040304F0080BE3
:101F400004F0100A04F0200904F0400840F2D680A2
:101F5000BEF10A0F00F0FF80AEF15B07FFB2102F59
:101F6000D7D8DFF848C22CFA07F717F0010FD0D006
:101F70008F790F2FCDD81D930B790D93CB790E93BD
:101F80004B790F934B7A91F80DC010938B7A119384
:101F9000CB7A1293ACF1800C0B7B13930FFA8CF37A
:101FA00091F80EC01493ACF1800C0FFA8CF31593DA
:101FB000CB7B16930B7C17934B7C18938B7C1993DC
:101FC000CB7C1A930B7D1C9271461B93FFF7C8FEC6
:101FD00063491C9A1D9B634804F0010400320C7095
:101FE000614918BF01220A700033604A18BF0123FB
:101FF00013701BF1000B5E4B5E4A18BF4FF0010BD4
:1020000083F800B01AF1000A5B4B18BF4FF0010AC9
:1020100083F800A019F10009584B18BF4FF00109CF
:1020200083F8009018F10008554B18BF4FF00108D5
:1020300083F80080EB43C3F3C0133146137002F002
:102040008BFB31464F4801F015FD31464E4802F0FA
:1020500045F831464D48FEF703FA31464C4807F043
:1020600081F931464B48FEF7D3FE39464A4807F01E
:10207000AFFF3946494806F0C9FC0E99474806F0BB
:10208000D1FC3946464805F067F93946454801F024
:10209000D8FE179A3B48C5F3C00101F003FD1A9919
:1020A000394802F033F81B99394807F073F9C5F342
:1020B00040130B93159B0A93149B0993199B089348
:1020C000189B0793169B0693139B0593129B0493EF
:1020D000119B0393109B02930F9B01930D9B009305
:1020E000C5F34002C5F3800305F001012E4801F05D
:1020F000BDF92D4800F0AEFF00200BE7BEF1010F47
:1021000002D114F0010F32E7BEF1020F03D1002A11
:102110003FF4FFAE2CE7BEF1030F03D1002B3FF4D9
:10212000F8AE25E7BEF1040F04D1BBF1000F3FF478
:10213000F0AE1DE7BEF1050F04D1BAF1000F3FF478
:10214000E8AE15E7BEF1060F7FF412AFB9F1000F4C
:102150003FF4DFAE0CE7B8F1000F3FF4DAAE07E76B
:10216000E1010020D84D0020E0010020E70100201F
:10217000E5010020E2010020E4010020E60100204A
:10218000E301002058B00020449400209822002051
:102190006C6C0020C499002084490020DC2C0020B5
:1021A000DC0B00208C270020B8590020BFFD010067
:1021B00008B592B11A4B09781B788B4217D00629C3
:1021C0000DD90A2929D0A1F15B03DBB2102B04D869
:1021D000144A22FA03F3DB0707D4042008BD0129BF
:1021E00007D1114B1B78002BF7D0FFF7B9FD00206A
:1021F00008BD022901D10D4BF4E7032901D10C4B95
:10220000F0E7042901D10B4BECE7052901D10A4B7A
:10221000E8E70629E9D1094BE4E7094BE2E700BF0B
:10222000ED5C0020BFFD0100E1010020E001002085
:10223000E7010020E5010020E4010020E601002084
:10224000E301002070B590F80231A4B023B3E0237D
:102250008DF80C30F2238DF80E300025ECB2E31C23
:102260000E5D0DF1900E01355EFA83F316B103F8A1
:10227000846CF3E7111203F8841C631D24A9043451
:1022800051FA84F4012104F8842CDBB2009103AAF2
:102290008DF80D3007F09BFB24B070BDF8B5BB4F37
:1022A000BB4D04460121204607F070FB064600287E
:1022B00000F08D820121204607F07FFB94F8002179
:1022C00042B9E02802BF0123207084F8003184F86D
:1022D0000121E7E7012A06D10223607084F8010199
:1022E00084F80031DEE7A054561C94F80131F6B2B0
:1022F000B34284F80061D5D1A3781C2B00F0EE81A5
:1023000056D8082B00F0EC8014D8022B00F0B780D0
:1023100007D8002B00F0AF80012B00F0A88001212E
:10232000B7E0032B00F0B980042BF8D12046FFF76B
:10233000B7F896E0112B00F068811FD80A2B00F047
:102340004F81102BEBD1934B1B78002B00F0598160
:102350002B78012B00F25581023AD2B2E11C8E4853
:1023600001F0CEFF0646002840F04C812B78002B70
:1023700077D101212046FFF7F3FC72E0182B00F023
:102380005B811A2B00F06F81132BC8D1814B1B7816
:10239000002B00F04F812B78012B00F24B817E48FF
:1023A00001F0FAFF06460028E0D032B27B494DE04A
:1023B000402B00F0DA8134D8202B00F0A28114D811
:1023C0001D2B00F068811E2BA9D13B78002B00F05B
:1023D0009681023AD2B2E11C714807F01BFC064616
:1023E00000283ED032B26F4930E0302B00F0A2819D
:1023F000312B94D16C4B1B78002B00F0B4812B78DF
:1024000013F0FB0F40F0AF81023AD2B2E11C6748F3
:1024100001F068FD0646002800F09B8132B2644955
:1024200014E0612B40D016D8502B00F0B781602B00
:102430007FF475AF023AD2B2E11C2046FFF7A0F953
:10244000064600283FF472AF5A4902B25A48FFF7D5
:10245000F9FE31461DE0622B33D0903B012B3FF655
:102460005EAF002384F8003184F801311AE720467A
:10247000FFF744F8F5E72046FFF75EF9F1E7023A87
:10248000D2B2E11C2046FFF73FFD014600283FF491
:102490004DAF2046FFF71AF8E3E7023AD2B2E11C4B
:1024A0002046FFF785FEF0E7023AD2B2E11C204653
:1024B000FFF7AAF9064600283FF438AF02B23F49B9
:1024C000C4E7023A0B2A09D9E01CFEF7ADFF064625
:1024D00000283FF42BAF32B23949B7E70426FAE7B8
:1024E0002B78632B50D1023AD2B2E11C3548FEF76B
:1024F000B9FD06462B785C3BDBB2062B0DD84D228E
:1025000022FA03F3DB0708D594F801212E48033A99
:10251000D2B2E11C06F06AFC06462B78663B052B1E
:1025200008D894F801212948033AD2B2E11C05F0F9
:102530000DFD06462B785D2B08D194F80121244827
:10254000033AD2B2E11C06F097FC06462B785B2BCF
:1025500008D194F801211F48033AD2B2E11C00F0DF
:10256000CFFA06462B78652B08D194F801211A483A
:10257000033AD2B2E11C04F091FB0646002E3FF470
:10258000D5AE32B2154961E70226B3E7E00100207B
:10259000ED5C0020E1010020D84D0020D0E00008D3
:1025A000844900203FE10008E50100204494002018
:1025B0009AE1000808E00008049C002025E00008DB
:1025C00042E00008C407002058070020C807002088
:1025D000DB070020D8070020DD0700205FE00008AF
:1025E0002B7863B9023AD2B2E11C7F4807F06CFD48
:1025F000064600283FF435AF32B27C4926E705266F
:10260000FAE7022632B27A4920E77A4B1B787BB18F
:102610002B78012B0CD8023AD2B2E11C764801F09B
:1026200095FE064600283FF4A1AE32B273490DE78D
:102630000226FAE70226B8E63B7843B32B7813F07C
:10264000FD0F24D16E4B1B780BB3023AD2B2E11CC2
:102650006C4807F055FA0646D0B92B78002B7FF46A
:1026600000AF022186E63B788BB12B7813F0FD0F8B
:102670000DD1634B1B78023AE11CD2B21BB1614809
:1026800007F068FAE7E76048FDF736FEE3E7022661
:1026900032B25E49DAE63B78D3B1042E1CD1E17840
:1026A00001290BD12B78022B13D1594B1B78002B0E
:1026B0007FF4D7AE534807F0C3FAD2E649B92B7876
:1026C000022B06D1524B1B78002B3FF4CAAEF1E728
:1026D000022632464F49B9E60426FAE73B7863B151
:1026E000023AD2B2E11C474807F062FA06460028D7
:1026F0003FF4B7AE32B24849A8E60226FAE702260E
:1027000070E6464B1B788BB12B780BB1032B0DD1A8
:10271000023AD2B2E11C424801F0B4F8064630B9A0
:102720002B78002B7FF49DAE032123E6022632B2E4
:102730003C498BE63C4B1B788BB12B7813F0FB0F9D
:102740000DD1023AD2B2E11C384801F0CBFB06466B
:1027500030B92B78002B7FF484AE04210AE60226E0
:1027600032B2334972E6022658E6324B1B788BB1FF
:102770002B780BB1052B0DD1023AD2B2E11C2E48B9
:1027800006F0F0FC064630B92B78002B7FF469AEDA
:102790000521EFE5022632B2284957E6284B1B787F
:1027A0008BB12B780BB1062B0DD1023AD2B2E11CC2
:1027B0002448FEF785FA064630B92B78002B7FF4C3
:1027C00050AE0621D6E5022632B21F493EE61F482A
:1027D00000F0C7FE4BF67F33984284BF84F8006157
:1027E00084F80161F8BD00BFEC07002081E000081B
:1027F00094E00008E1010020D84D0020B3E000087B
:10280000E20100208449002098220020ECE000082A
:10281000EE5C002006E1000821E10008E70100204D
:1028200058B000205AE10008E5010020449400203F
:102830007EE10008E40100206C6C0020B3E1000898
:10284000E6010020C4990020CEE10008B85900201C
:10285000F0B51F4690F80231A5B083B3E0238DF8A0
:102860000C30F3238DF80E300026F4B2E51C0B5D1E
:102870000DF1900E01365EFA85F513B105F8843C32
:10288000F3E7131205F8843C211D24AB53FA81F1C0
:1028900001F8842C621D53FA82F23B1202F8843C48
:1028A000E21DD3B2063424AA52FA84F4012104F8BA
:1028B000847C03AA00918DF80D3007F088F825B0CC
:1028C000F0BDF0B590F80241A5B0BDF9A860002CAC
:1028D0003ED0E0248DF80C40F4248DF80E40002703
:1028E000FCB2E51C11F804E00DF1900C01375CFA24
:1028F00085F5BEF1000F02D005F884ECF0E7111267
:1029000005F8841C24AD211D55FA81F101F8842CB1
:10291000621D55FA82F2191202F8841CA21D55FAA2
:1029200082F2012102F8843CE31D55FA83F332124E
:1029300003F8842C04F10903083455FA84F4DBB25B
:1029400004F8846C03AA00918DF80D3007F03FF86D
:1029500025B0F0BD2DE9F04190F80241A4B0BDF9D9
:10296000A870BDF9AC60002C4ED0E0248DF80C406E
:10297000F5248DF80E404FF0000E5FFA8EF4E51C42
:1029800011F804C00DF190080EF1010E58FA85F50A
:10299000BCF1000F02D005F884CCEEE7111205F867
:1029A000841C24AD211D55FA81F101F8842C621D8F
:1029B00055FA82F2191202F8841CA21D55FA82F20D
:1029C000012102F8843CE31D55FA83F33A1203F81F
:1029D000842C04F1080355FA83F3321203F8847C43
:1029E00004F1090355FA83F303F8842C04F10B0373
:1029F0000A3455FA84F4DBB204F8846C03AA00911B
:102A00008DF80D3006F0E3FF24B0BDE8F081002220
:102A10004FF4804102804280818082718260027323
:102A20007047C9010180D2014942418082807047CC
:102A3000B0F9002030B503464AB3807930B98A42F4
:102A400027DC01229A7100229A601A739A79F2B1F6
:102A50009A68B2F5166F21D81C7B1149B3F904505E
:102A600051F82410601CC0B269430B284FEAE131D1
:102A7000187301F30F0109B201D900201873013254
:102A800042F6DF6082429A6084BF00229A71084653
:102A900030BDB3F902208A42D3DAD7E70021EEE74E
:102AA00010E400080022027042708270704700003B
:102AB00010B50446104806F0C7FB0F4806F062FC4C
:102AC000C8B16378012B13D1A1780C4B0A48C1EB34
:102AD000C101C1EBC1011944312206F043FBA378C7
:102AE000013303F00303A370237823B9637010BD8F
:102AF00000236370A37010BD6C6C002040E40008DC
:102B0000012A0BD10A78012A0CBF0123002303708C
:102B100002D1437803B94270002070470420704707
:102B2000002202604260704718235A4345F6C053A2
:102B300003FB01210160704700681823B0FBF3F02C
:102B4000704703680BB10123436070470023436063
:102B5000704743681BB102680AB11944416070476D
:102B60004068003018BF01207047036833B14068E7
:102B700028B183422CBF00200120704718467047BF
:102B800070B504460625002686F00106314620462B
:102B9000FDF75AFE31462046FDF766FE31462046D7
:102BA000FDF76AFE31462046FDF76EFE31462046AF
:102BB000FDF772FE31462046FDF776FE314620468F
:102BC000FDF77AFE31462046FDF77EFE013DFA21F3
:102BD0002046FDF793FE15F0FF05D5D12946204686
:102BE000FDF74AFE29462046FDF74EFE29462046BF
:102BF000FDF752FE29462046FDF756FE294620469F
:102C0000FDF75AFE29462046FDF75EFE20460121CB
:102C1000FDF732FE2046FA21FDF770FE2046012125
:102C2000FDF732FE2046FA21FDF768FE204601211D
:102C3000FDF732FE2046FA21FDF760FE2046012115
:102C4000FDF732FE2046FA21FDF758FE204601210D
:102C5000FDF732FE2046FA21FDF750FE2046012105
:102C6000FDF732FE2046FA21FDF748FE29462046B0
:102C7000FDF72AFE2046FA21FDF740FE29462046B0
:102C8000FDF71AFE2046FA21FDF738FE29462046B8
:102C9000FDF70AFE2046FA21FDF730FE29462046C0
:102CA000FDF7FAFD2046FA21FDF728FE29462046C9
:102CB000FDF7EAFD2046FA21FDF720FE29462046D1
:102CC000BDE87040FDF7D8BD2DE9F74F002504465B
:102CD0004FF4167100F8045BFDF7DAFE4FF4FA7159
:102CE00004F11800FDF7D4FE4FF4167104F12C0026
:102CF00004F0A9F804F198091022294604F13C00D7
:102D00000AF042FA04F14C08E56425656565A5659D
:102D1000A4F85C5025666566A4F86850E5662567EA
:102D2000A4F87450A567E567A4F88050C4F88450EF
:102D3000C4F88850A4F88C50C4F89050C4F894504B
:102D400004F592774B4623F8025B9F42FBD104F5D2
:102D5000BA7B3B46002223F8022B5B45FBD104F5EE
:102D6000D87A5B46002223F8022B5345FBD104F5A9
:102D700023765346002223F8022BB342FBD104F5FD
:102D800041723346002523F8025B9342FBD14FF09A
:102D9000000384F804334FF48043A4F80633A4F806
:102DA0000833A4F80A33A4F80C33A4F80E33A4F8BB
:102DB0001033A4F81233A4F81433A4F816334FF4E4
:102DC0000063A4F81833A4F81A33012384F82433D9
:102DD00084F81C53C4F8205384F82553A4F82653D0
:102DE000A4F82853C4F82C5384F830538C220021C3
:102DF000484601930AF0C8F95022002138460AF0EB
:102E0000C3F93C22002158460AF0BEF9DC22002119
:102E100050460AF0B9F97822002130460AF0B4F998
:102E20001022002140460AF0AFF9019BE3631A4BE0
:102E300063642A23A4F85C30184B63660C23A4F85F
:102E40006830174B23670623A4F87430154BE367EB
:102E50005223A4F88030144BC4F888302023A4F8FF
:102E60008C30124BC4F894302046C4F8408084F86B
:102E70004850C4F86090E766C4F878B0C4F884A0FD
:102E8000C4F89060FDF7FCFA2046FFF779FE204673
:102E900003B0BDE8F08F00BFC8010020760000201D
:102EA000AE0100206A000020CA0000206E01002050
:102EB0002DE9F04799460378089E04460D46904652
:102EC000002B53D090F83033002B4FD1284B1A7879
:102ED00032B990F80413012251401A70FDF7BCFC7E
:102EE000691E09293DD8DFE801F0052A2D30333667
:102EF0003C3C3C39B4F90A534FF0000A04F118077E
:102F00001FFA8AF34B4531DA38F81310B4F81A2354
:102F100011FB05F1C91301F30F01114489B2B1F599
:102F2000805F22BFB4F828230132A4F82823DEB939
:102F300032463846FDF700FE0AF1010AE0E7B4F92F
:102F40000C53D9E7B4F90E53D6E7B4F91053D3E7CD
:102F5000B4F91253D0E7B4F91453CDE7B4F91653CA
:102F6000CAE7B4F90853C7E7F25CE2E7BDE8F087C7
:102F7000EE5C00201830FDF79EBD000038B5044C13
:102F800022788A420D4601D0FDF76EFC257038BDCF
:102F9000EC5C002080F825137047000070B52C4DC4
:102FA0002B788B4204460E4633D0013B092B09D8BF
:102FB000DFE803F00512161A1E2208080826002171
:102FC000FDF75AFC731E092B22D8DFE803F01D23FE
:102FD000282D32372121213C0021FDF755FCF1E756
:102FE0000021FDF759FCEDE70021FDF75DFCE9E765
:102FF0000021FDF761FCE5E70021FDF765FCE1E755
:103000000021FDF769FCDDE701212046FDF734FCD6
:103010002E7070BD01212046FDF736FCF8E7012136
:103020002046FDF739FCF3E701212046FDF73CFC83
:10303000EEE701212046FDF73FFCE9E701212046AC
:10304000FDF742FCE4E701212046FDF745FCDFE700
:10305000ED5C002038B5057804464DB9FDF7F8FA67
:103060000123237029462046BDE83840FFF796BF6C
:1030700038BD0000F0B5D0F82033027801338DB0B0
:103080000446C0F82033002A00F00081D0F82C2339
:103090004BF67F339A4214D9A54B1B785A1E052A4A
:1030A0000CD8022B06D1A34B1B781BB10021A248E0
:1030B00006F0C6FD00212046FFF770FF0023C4F88C
:1030C0002C33D4F8202345F6BF539A420BD994F8F9
:1030D0002413002381F00101C4F8203384F8241361
:1030E0002046FDF7B1FB94F81C3323B12046FDF7D1
:1030F0009FFB84F8300304F11800FDF7FDFC20B9B4
:103100008C4B1A78002A40F09981271D3846FDF72C
:10311000F3FC012840F3C780002502AB5A190AA925
:103120003846FDF730FD04AB03EB450104F12C00FC
:1031300003F0FBFE94F825335BB1BDF828301BB1DA
:1031400040F6FF72934204D1B4F826330133A4F859
:103150002633BDF82830B4F818239A1AB4F8063389
:1031600003AE13FB02F3DB1303F30F0326F8153052
:103170000135022DD1D194F83033002B40F09380EB
:103180002A4608A9304609F0F7F92B460AAA08A9E9
:1031900004F13C0009F078FD0B9A0A9B1344BDF83A
:1031A0000C2093FBF5F31B1403F30F039BB2D21A0D
:1031B000ADF81420BDF80E20D31AADF816305C4BD4
:1031C0001B78002B78D15D4B1B7863B12B4607AA87
:1031D00005A904F1680009F0FBFB2B4604AA07A926
:1031E000574805F035FB574B1B7863B1022307AAFC
:1031F00005A904F1740009F0EBFB022304AA07A956
:10320000514803F0DBFC514B1B789BB1022306AA0B
:1032100005A904F1800009F0DBFB022307AA06A937
:1032200004F18C0009F0D4FB022304AA07A9484842
:1032300002F064F9474D484F2A780AB93B78C3B188
:10324000022307AA314604F15C0009F0C1FB3B7878
:103250002BB1022304AA07A9404804F09FFD2B7854
:103260003BB13F4B1B7803B3022207A93D4800F056
:10327000D7FD3D4B1B78B3B12046FDF7D9FA0223A9
:10328000014605AA394802F0ABFE0CE038498B42F2
:1032900009D990F82413C0F8202381F0010180F8A7
:1032A0002413FDF7D1FA0DB0F0BD022304AA07A93B
:1032B000304804F00BFADCE7012B11D11F4B1B78CF
:1032C000002BF0D02B4607AA05A904F1680009F0ED
:1032D0007FFB2B4604AA07A9194805F0B9FAE2E7D3
:1032E000022B4BD11B4B1B78002BDCD02B4607AAA3
:1032F000314604F15C0009F06BFB194B1B7883B17C
:103300000C4B1B783BB1009502AB04AA07A91A48E5
:1033100005F042FBC7E72A4607A9124800F080FDE6
:10332000C1E72B4604AA07A9124804F0CFF9BAE76F
:10333000ED5C0020EE5C002084490020E1010020CB
:10334000704A0020E501002000720020E401002006
:10335000F05C0020E0010020E7010020189D002023
:10336000E20100208C270020E30100208050002093
:103370007FA90300DC0B0020DC2C0020032B11D1E3
:10338000324B1B78002B8ED02B4607AA05A904F1DF
:103390005C0009F01DFB2B4604AA07A92C4804F089
:1033A000FDFC80E7042B12D12A4B1B78002B3FF445
:1033B0007AAF2B4607AA05A904F1740009F008FBAF
:1033C0002B4604AA07A9244803F0F8FB6BE7052B5A
:1033D00019D1224B1B78002B3FF465AF2B4606AA70
:1033E00005A904F1800009F0F3FA2B4607AA06A903
:1033F00004F18C0009F0ECFA2B4604AA07A918483E
:1034000002F07CF84FE70A2B3FF436AF632B0CD168
:1034100007AA314604F16800022309F0D9FA022212
:1034200007A9104800F00AFF3DE7602B7FF43BAF8F
:10343000022204A90C4805F05DFA34E7187094F8EC
:1034400004132046FDF708FA5FE600BFE7010020FD
:10345000189D0020E501002000720020E4010020FA
:10346000F05C002084070020E00700202DE9F041F7
:103470009DF8388080F804334FEAC818A0F8168306
:10348000BDF940809DF81C309DF818C09DF820E0E3
:103490009DF824709DF828609DF82C509DF83040D0
:1034A00008F50068DB01A0F81883BDF93C80A0F89E
:1034B00008339DF8343008F500684FEACC1C4FEA19
:1034C000CE1EFF01F601ED01E401DB01A0F81A8335
:1034D0009DF84480A0F806C3A0F80AE3A0F80C7396
:1034E000A0F80E63A0F81053A0F81243A0F814330C
:1034F00080F81C8319B1CCF1000CA0F806C392B17E
:10350000CEF1000E7F4276426D4264425B42A0F8EB
:103510000AE3A0F80C73A0F80E63A0F81053A0F80B
:103520001243A0F81433BDE8F081B0F8263300331D
:1035300018BF01230B70B0F82833003318BF0123E4
:1035400013700023A0F82633A0F8283370471830F2
:10355000FDF73FBB0430FDF73CBB0023C0F82C3324
:103560007047D0F82C03704790F830037047000084
:103570000148FEF786B900BF049C002010B54448FE
:10358000444CFEF78BFE4448FFF774FD434B1B7819
:103590002BB12378012B02D1414801F027F8414B90
:1035A0001B784BB12378022B06D13F4B1B78002BA5
:1035B00065D03E4806F0BAFC3D4B1B782BB1237812
:1035C000032B02D13B4800F0DBF93B4B1B782BB1BE
:1035D0002378042B02D1394800F002FD384B1B78C8
:1035E0002BB12378052B02D1364805F02DFE364B42
:1035F0001B783BB12378062B45D03448FDF754FBAC
:10360000002840D1324B1B782BB123780A2B02D1F2
:10361000304801F0E1FF2378632B02D12E48FDF7FB
:1036200011FC23785C3BDAB2062A9DBF4D23D340C0
:10363000DB430123DB0702D4284805F0ADFB2378E8
:103640005D2B02D1264805F0EFFB23785B2B02D1DE
:103650002448FFF72DFA2378652B02D1224803F086
:1036600009FB2378663B052B02D8204804F0F0FBC9
:10367000237863B91E48BDE8104006F0D7BC1D484A
:10368000FCF786FE98E71148FDF768FBBAE710BD26
:10369000049C0020ED5C0020B8590020E1010020CE
:1036A000D84D0020E0010020E201002084490020E4
:1036B000E701002058B00020E501002044940020DC
:1036C000E40100206C6C0020E6010020C499002079
:1036D000E301002080500020C4070020580700208C
:1036E000DB070020D8070020DD070020C8070020E6
:1036F000EC0700209822002008B5FFF739FFFFF7FC
:103700003DFFFCE708B5284804F02BFC274800F0F3
:10371000C5FD274800F0CEF9264805F031F92648C6
:1037200006F070F9254803F025FC2548FCF7B2FDAA
:10373000244803F0E9FF244800F06AF8234802F027
:1037400077FD234800F080FB224801F0D1FB22489E
:1037500005F0BAFC2148FDF777FA214802F0A8FAF3
:10376000204800F0D9FC2048FDF767FB1F4805F012
:103770000DFA1F4805F054FB1E48FFF793F91E4849
:1037800004F05AFB1D4803F071FA1D4805F0AAF831
:103790001C4806F03BFC1C48FDF76AFE1B48BDE8D0
:1037A0000840FFF791BA00BF704A0020D84D0020B2
:1037B0008C270020DC2C002084490020DC0B00201A
:1037C00098220020189D002058B000200072002090
:1037D00044940020F05C00206C6C0020C499002010
:1037E0008050002084070020C407002058070020D4
:1037F000DB070020D8070020C8070020DD070020D5
:10380000E0070020EC070020049C0020B8590020AD
:1038100038B54FF47A61044604F11C0503F049FA07
:10382000002222616261A26104F13C03294621F871
:10383000022B8B42FBD104F2EC41002203F8012B56
:103840009942FBD1F023A4F8F0344FF49653A4F836
:10385000EC24A4F8EE2484F8F224C4F8F434C4F878
:10386000F82400212022284609F08EFC0523237429
:1038700009236382024B6361A561204638BD00BF06
:10388000E8010020792A70B506460C460ED103F0F7
:1038900022FA77280CD904F1780514F8011F304674
:1038A00003F05AFAAC42F8D1002070BD042070BD7C
:1038B000052070BD2DE9F043DFF888C0DFF888E00F
:1038C000DFF88880DFF888908FB0002302AC40F2E8
:1038D000772640F2657701F0C005802D90F8F2243C
:1038E00023D0C02D05D035BB002A14BF42464A461E
:1038F00004E0002A14BF4FF46D723A4624F81320F6
:1039000001338900042BC9B2E5D104AA2146103045
:1039100008F062FE0023009304AA14230321084840
:10392000FFF7C6FA0FB0BDE8F083002A14BF4FF4CA
:103930009E723246E2E7002A14BF72466246DDE715
:10394000B85900209BF8FFFF4CFCFFFFC4FEFFFFAF
:1039500089FDFFFF10B58EB0002404AA02A904233C
:1039600010300294039408F037FE0094142304AA44
:1039700003210248FFF79CFA0EB010BDB859002091
:10398000B0F8EC3470B504463BB903F0C5F9002833
:1039900059D1B4F8EC34002B3FD03348334EFFF705
:1039A000E9FA0546142D5ED9B4F8EE345A1C2344C6
:1039B000A4F8EE2493F83C102046FFF77BFF337801
:1039C000143DADB21BB1D4F8F434C4F8F834B4F8F3
:1039D000EE24B4F8EC349A42E4DB0023A4F8EE348D
:1039E000A4F8EC3470BDB4F8EC24501C2244A4F8C4
:1039F000EC0482F83C102DE07825204603F0D1F944
:103A0000B4F8EC34013D5A1C234415F0FF05A4F82A
:103A1000EC2483F83C00F0D121E0D4F8F83413B35F
:103A20001148FFF7A7FA0546142D1CD92046FFF7C9
:103A300091FFD4F8F834143D013BADB2C4F8F8342A
:103A4000002BF1D170BD0A4B1B78002BD4D1B4F8F8
:103A5000F05477219AB2AA4203F10103C3DB002399
:103A6000A4F8EE3495E770BDB8590020E2010020BB
:103A7000EE5C002001EB4101890001F5167189B26D
:103A8000B1F5966F8ABF4FF49663A0F8F014A0F8D2
:103A9000F034704708B503F01EF97823B0FBF3F05B
:103AA000C0B208BD4FF496635A4380F8F214C0F8D0
:103AB000F4247047034600F11402002143F8041B6C
:103AC0009A42FBD100F23C51002322F8023B914282
:103AD000FBD1A0F83C35A0F83E3542F20F72C0F899
:103AE0004435A0F84835A0F84A354FF00003A0F857
:103AF000402580F84C3570470023A0F83E35A0F8EB
:103B00003C35C0F84435A0F84A35A0F8483542F2B3
:103B10000F73A0F8403570472DE9F04FBDF82440F1
:103B2000BDF92CC0BDF92880324DA71C0134BFB2AD
:103B3000A4B24FF0000ECCF100095FFA8EFABE1E5F
:103B40009245B6B253DA00EB410ABAF814B0ABEBC7
:103B5000080B0FFA8BFBCB454FEAE60A06F0070687
:103B600011DA15F806B013F80A6026EA0B0603F816
:103B70000A60E61004F0070A15F80AA013F806B068
:103B80004AEA0B0A13E0BBF1000F22DA15F806B07F
:103B900013F80A6026EA0B0603F80A60E61004F040
:103BA000070A15F80AB013F806A02AEA0B0A03F868
:103BB00006A04E1DB6B2B6F5257F24BFA1F28F2612
:103BC000B6B2023702340EF1010EBFB2A4B23146D2
:103BD000B3E7AE5DE34513F80AB046EA0B0603F817
:103BE0000A604FEAE40604F0070AC5DAD9E7BDE83F
:103BF000F08F00BF04E50008B0F83C2550F82230F3
:103C000000294FEA4303B8BF43F001032DE9F04F09
:103C100040F82230B0F83E3500EB43030446998269
:103C200050F82230774823F07F4391B0584002F09B
:103C3000BDFA022800F38A80B4F83E35724EDFF8F0
:103C4000D8C103F2212189B2B1F5257F24BFA3F1A8
:103C5000730189B200220F464FF47A50154604EBE7
:103C6000470312F90CE0B3F914309E42B8BF1E4668
:103C70009842A8BF1846BEF1010F0AD0BEF1030F4B
:103C800005D0BEF1FF3F40F0BA801D4402E003EBD7
:103C90004303ED1A7B1D9BB2B3F5257F28BFA7F226
:103CA0008F2702F101022CBFBFB21F46182AD6D1BE
:103CB000D4F844359D4249DD304440100FFA80F875
:103CC000301A44F631464643042346F3CF360DF10D
:103CD0001C0900930296CDF804804B462046FFF75E
:103CE0001BFF0027494ADFF834B1BA46B85C19F81F
:103CF00007300592034017F80B00584002F050FAC5
:103D000001378244072F5FFA8AFA059AEED1BAF199
:103D1000030F1BD8334642463D493E48FEF798FD07
:103D2000B4F83E35C4F8445503F20D1292B2B2F520
:103D3000257F24BF6FF4C3729B18A4F84885A4F8AC
:103D40004A6534BFA4F84025A4F84035B4F83E25B0
:103D5000B4F8403593423CD1991D89B2B1F5257F25
:103D600028BFA3F28E21B4F94A350293B4F948353D
:103D700001934FF0080328BF89B2842200932046A4
:103D800007ABFFF7C9FE06A805F01BF90DF11B03F1
:103D90000DF11A020DF11D0106A805F041F994F884
:103DA0004C259DF81A309A420CD19DF81B30032BFC
:103DB00008D1C3238DF81C3007AA222300211548FF
:103DC000FDF7F8FD42F20F73A4F840350023C4F864
:103DD0004435B4F83E3501339BB2B3F5257F28BF97
:103DE0000023A4F83E35B4F83C3501339BB2042BD4
:103DF00088BF0023A4F83C3511B0BDE8F08F03EB79
:103E0000430342E76E28760080C1FFFF0CE50008FF
:103E100032E50008049C00201AE5000813E50008BC
:103E2000F8B505460E46174600235C1CDBB2BB42C4
:103E300006DA36F913102846FFF7DEFE2346F4E7CC
:103E4000F8BD80F84C15704770B54FF47A610446A0
:103E500004F1280602F02DFF002323616361A361B2
:103E6000A3832362636204F14805324622F8023BD1
:103E70009542FBD104F1C0022B46002123F8021B1E
:103E80009342FBD104F5AE61002203F8012B8B4273
:103E9000FBD1F023A4F8743541F27073C4F878357F
:103EA000A4F87025A4F87225C4F87C2500212022EE
:103EB000304609F069F978220021284609F064F9B2
:103EC0000523237408236382044B63612023A383A7
:103ED000034BA66125626362204670BD420200204A
:103EE00092020020122AF8B506460F46144614D94D
:103EF00002F0F1FEA04212DB013CE1B2304602F0DA
:103F00002BFF0025EBB29C4205F1010509D93B448A
:103F10003046597802F020FFF4E70420F8BD052070
:103F2000F8BD0020F8BD0000F0B599B005460B467D
:103F3000002402A94FF4D27040F2EC464FF6143739
:103F40004FF65C6E03F0C002802A26D0C02A21D032
:103F5000002A0CBF72463A4621F8142001349B0017
:103F6000042CDBB2EED1234604AA05F1100008F0C0
:103F700033FB0EAA04A905F11C00142308F028FD48
:103F8000002300930EAA142321460548FEF790FF54
:103F900019B0F0BD21F81460E0E721F81400DDE766
:103FA000B859002030B599B00024054604AA02A9EA
:103FB000042310300294039408F00EFB0EAA04A907
:103FC00005F11C00142308F003FD009414230EAA2D
:103FD00004210248FEF76CFF19B030BDB85900202B
:103FE00070B5B0F8705504463DB902F095FE002852
:103FF00054D1B4F87035002B3AD03548354EFEF721
:10400000B9FF0546142D62D9B4F872355A1C234401
:10401000A4F8722593F8C0102046FFF785FF337887
:10402000143DADB21BB1D4F87835C4F87C35B4F882
:104030007225B4F870359A42E4DB0023A4F8723597
:10404000A4F8703570BDB4F8745577219AB2AA42BD
:1040500003F1010308DAB4F87025501C2244A4F8D7
:10406000700582F8C010F1E70023A4F87235C0E7AC
:10407000D4F87C355BB31648FEF77CFF0546142D5B
:1040800025D92046FFF78EFFD4F87C35143D013B3F
:10409000ADB2C4F87C35002BF1D170BD0E4B1B784E
:1040A000002BD0D0204602F07CFE0646EBB2B34295
:1040B00005F10105D8DA204602F073FEB4F8703538
:1040C0005A1C2344A4F8702583F8C000EEE770BDA5
:1040D000B8590020E2010020EE5C002001EB410114
:1040E000890001F5167189B2B1F5966F8ABF4FF458
:1040F0009663A0F87415A0F87435704708B502F0FF
:10410000EAFDD823B0FBF3F0C0B208BD4FF49663CC
:104110005943C0F87815704700230360037183602A
:1041200000F10C0200F13C0122F8023B8A42FBD173
:104130004FF0000380F83C307047000037B58368CB
:1041400090F83C2000294FEA4303B8BF43F0010335
:104150008360531CDBB2172B00EB420280F83C302B
:1041600088BF00239181044688BF80F83C30806876
:1041700020F07F432D48584002F018F8022825DC33
:104180002B4A04F10C0104F13C054FF47A5331F948
:10419000020B8242B8BF02468342A8BF03468D424B
:1041A000F5D1D11A052911DD00218DF800108DF807
:1041B000022011121A128DF801108DF803206946A1
:1041C00005221C488DF80430FDF758FDA06820F04A
:1041D0007F431948584001F0E9FF022824DC144AC3
:1041E00004F10C014FF47A533C3431F9020B824252
:1041F000B8BF02468342A8BF03468C42F5D1D11A0C
:10420000052911DD80218DF800108DF80220111292
:104210001A128DF801108DF8032069460522054811
:104220008DF80430FDF72AFD03B030BD68B4AA0054
:1042300080C1FFFF049C0020974B55002DE9F04101
:1042400004460E461746002543F23338ABB2BB4254
:1042500021DA36F913102379CA0F934209D0236863
:10426000B3F5004F2ABF6FF4CC7003F299131B18FB
:1042700023602368227103EB0802B2F5803F02D26B
:1042800022600135E2E7A3F54C43CD3B2360204695
:10429000FFF754FFF5E7BDE8F081000038B54FF4B3
:1042A000B971044604F11C0502F003FD00222261ED
:1042B0006261A26104F14403294621F8022B8B427A
:1042C000FBD104F52771002203F8012B9942FBD1A1
:1042D0003C23A4F89C22A4F89E22A4F8A032282211
:1042E0000021284608F050FF05232374032363822E
:1042F000024B6361A561204638BD00BFD202002099
:10430000292A70B506460C4619D102F0E4FC29288A
:1043100006D802B20B490C48FDF794FF052070BD8A
:104320000021304602F018FD651E283415F8011FE3
:10433000304602F011FDA542F8D1002070BD0420E6
:1043400070BD00BFF5EA0008049C00200C2A70B57F
:1043500006460C4619D102F0BEFC0C2806D802B263
:104360000B490C48FDF76EFF052070BD012130465A
:1043700002F0F2FC651E0B3415F8011F304602F006
:10438000EBFCA542F8D1002070BD042070BD00BF39
:1043900032EB0008049C002010B5044602F09BFCA0
:1043A000024628B905490648FDF74CFF052010BD17
:1043B0000221204602F0D0FC002010BD15EB0008C1
:1043C000049C00202DE9F04F002397B001AC184663
:1043D0001855D0540133532BFAD10020DFF8BCE13B
:1043E0000139054604464FF0010C11F8018F2B46A8
:1043F0000646254600270CFA07F418EA040F14BFF6
:104400000124002404EB03092B442344DB0709F0B7
:1044100001090CD506F007031EF803A016AB03EB49
:10442000D60313F854BC4AEA0B0A03F854ACB9F1AA
:10443000000F0ED0731C0DF1580909EBD30903F0DE
:10444000070319F854AC1EF8033043EA0A0309F8CD
:10445000543C0137082F06F102062B4640F08780B6
:104460001030B0F5287FC0D14A4F002338460124D0
:1044700007EB4301B3F5257F7DD216AD05EBD305E0
:1044800015F8545C2E060AD591F800E04E7812F823
:104490000EC004FA06F646EA0C0602F80E606E0636
:1044A0000AD591F802E0CE7812F80EC004FA06F6AA
:1044B00046EA0C0602F80E60AE060AD591F804E052
:1044C0004E7912F80EC004FA06F646EA0C0602F817
:1044D0000E60EE060AD591F806E0CE7912F80EC00D
:1044E00004FA06F646EA0C0602F80E601E1DB6F542
:1044F000257F01F108013CD229070BD510F816E001
:1045000000EB4606717812F80E6004FA01F13143AF
:1045100002F80E1069070CD5591D10F8116000EB58
:10452000410112F806E0497804FA01F141EA0E016E
:104530009155AE070CD5991D10F8116000EB4101A3
:1045400012F806E0497804FA01F141EA0E019155AA
:10455000E9070AD5D91D10F8115000EB4101565D4D
:10456000497804FA01F131435155083380E7254673
:1045700041E733467EE7084C013A00235178185D45
:1045800001334140532B02F8011FF7D117B0BDE8AA
:10459000F08F00BFCDE5000872E500085EE5000879
:1045A00070B59AB00C460023012202A940F24935A9
:1045B0004FF6B74632EA040E0CBF21F8136021F81B
:1045C000135001335200082BD2B2F3D106AA103097
:1045D00008F002F80023009306AA282301210248CC
:1045E000FEF766FC1AB070BDB859002070B5A2B0D5
:1045F000044602F091FB002840F08880B4F89C3219
:10460000002B40F0838022B070BD002D41D14F4B74
:104610001B7883B9B4F8A052AA219AB2AA4203F136
:1046200001032FDAB4F89C22501C2244A4F89C0207
:1046300082F84410F1E7204602F0B3FB01AE2046B9
:1046400002F0AFFB70550135292DF8D10DF1320282
:1046500031462046FFF7B6FEEA238DF83030B4F835
:104660009C22A6238DF831300CAD0023D118585D63
:1046700014FA81F10133552B81F84400F6D15532FB
:10468000A4F89C220023A4F89E32B4F89C32002B9C
:10469000B9D02F48FEF76EFC0546282DB3D9B4F8E3
:1046A0009E325A1C2344A4F89E2293F844102046BC
:1046B000FFF776FFB4F89E22B4F89C32283D9A4268
:1046C000ADB2EADB0023A4F89E32A4F89C329AE74C
:1046D0000228DAD1002DDCD1204602F062FBB4F8CA
:1046E0009C321C4D03F1120189B200229818565DCC
:1046F00014FA80F00132062A80F84460F6D10633BD
:104700009BB29942F1D1A4F89C12BBE7204602F07B
:1047100043FBB4F89C5200283FF477AF0128D7D16F
:10472000002DB6D1204602F03CFB0C25B4F89C626B
:10473000731CA4F89C32204602F033FB2644013D52
:1047400015F0FF0586F84400F0D19BE7EE5C0020F1
:10475000B859002066E5000801EB4101490001F568
:10476000967189B2B1F5167F8ABF4FF41673A0F81F
:10477000A012A0F8A032704708B502F0ACFA0D23E1
:10478000B0FBF3F0C0B208BD034610B500F118024B
:1047900003F8041B002143F8041B9342FBD11A4683
:1047A00000F5E464002322F8023BA2424FF000012E
:1047B000F9D142F20F72A0F82037A0F82237A0F802
:1047C0002437A0F82637A0F82827A0F82A37C0F801
:1047D0002C37A0F83037A0F83237A0F83437A0F8DB
:1047E0003637A0F83837A0F83A37A0F83C37A0F8A9
:1047F0003E3780F8401780F8411780F8421780F85C
:104800004317A0F8443780F8461780F8471780F818
:10481000481700F24A7300F65262002123F8021B87
:104820009342FBD110BD0023A0F82237A0F82A370D
:10483000A0F82037C0F82C3780F8413770470023A4
:10484000A0F82437A0F82237A0F82A37A0F820379C
:10485000C0F82C3780F8413780F8423780F8463767
:10486000A0F8263742F20F73A0F8283770470000EF
:104870002DE9F04FBDF82440BDF92C90BDF928A0DA
:104880002D4E04F1020E01341FFA8EFEA4B24FF039
:104890000008C9F1000B5FFA88F7AEF102059742F4
:1048A000ADB246DA01F10C0730F817C0ACEB0A0CD8
:1048B0000FFA8CFCDC454FEAE50705F007050EDA38
:1048C00016F805C0DD5D25EA0C05DD55E51004F0A0
:1048D0000707F75D13F805C047EA0C0710E0BCF1C5
:1048E000000F19DA16F805C0DD5D25EA0C05DD5567
:1048F000E51004F0070716F807C05F5D27EA0C070C
:1049000005310EF1020E02345F5589B208F101083B
:104910001FFA8EFEA4B2BEE7755DCC4513F807C042
:1049200045EA0C05DD554FEAE40504F00707D0DA47
:10493000E1E7BDE8F08F00BF50EB0008B0F820378A
:104940002DE9F04F00EB830304465B68794823F0C0
:104950007F43584089B00F4601F028FCC31EDBB2EC
:10496000122B804640F29280B4F82217724DDFF885
:10497000D4C1DFF8D491733989B200228E464FF446
:104980007A5016460EF10C0334F913309D42B8BF2D
:104990001D469842A8BF1846B8F1020FD4BF12F9BD
:1049A00009A012F90CA0BAF1010F09D0BAF1030F56
:1049B00004D0BAF1FF3F6CD11E4402E003EB430385
:1049C000F61A01320EF1050E182A1FFA8EFED9D101
:1049D000D4F82C379E4259DD284440100FFA80F954
:1049E000281A44F631454543042345F3CF350DF1EC
:1049F000180A009302955346CDF804902046FFF71D
:104A000037FFB8F1020F4FF00008DFF840B143461E
:104A100051DC4A491BF808001AF8082005930240A7
:104A200018F801000491504001F0BAFB059B04996D
:104A300008F101080344B8F1070FDBB2EAD1032BF8
:104A400024D84FB3A4F83E57A4F83C57A4F83A57DB
:104A5000A4F83857A4F83697A4F83497A4F83297F6
:104A6000A4F83097002384F84037C4F82C6740231B
:104A700084F84137B4F82237A4F82437A3F5C37279
:104A800003F20D13A4F82627A4F8283709B0BDE8CF
:104A9000F08F03EB43038FE794F8403704EB4302B6
:104AA0000133DBB2032BA2F83857A2F83097DAD9DA
:104AB00084F84077D9E722491BF808001AF8082043
:104AC0000593024018F801000491504001F068FB82
:104AD000059B049908F101080344B8F1070FDBB204
:104AE000EAD1032BD2D8B7B1A4F83E57A4F83C576B
:104AF000A4F83A57A4F83857A4F83697A4F834978E
:104B0000A4F83297A4F83097002384F84037C4F80B
:104B10002C672023ACE794F8403704EB43020133C1
:104B2000DBB2032BA2F83857A2F83097EDD984F8FE
:104B30004077ECE76E28760080C1FFFF5FEB00084E
:104B400066EB000885EB00086DEB000858EB0008E9
:104B500080F843177047A0F84417704730B4B0F896
:104B6000264704F13C0304F51674A5B20A469BB22D
:104B70000024591C00EB4303B3F84A371C448BB2A2
:104B8000AB42F6D14FF40773B4FBF3F4C4F307233D
:104B900082F8223082F8234001780248242330BC76
:104BA000FCF708BF049C0020B0F82A37F0B50133A9
:104BB0009BB20446A0F82A37B0F8440783428FB06E
:104BC00006DA94F84607003018BF01200FB0F0BD98
:104BD000B4F82237B4F828078342F2DCB3F5617FDA
:104BE000EFD204EB43000029A0F84A270183B4F870
:104BF000200704EB800042684FEA4202B8BF42F04F
:104C00000102426094F84627002A66D1A3F5C873D2
:104C10005A2B03D801212046FFF790FEB4F8223723
:104C2000B4F8281799427CD1B4F93237B4F9305727
:104C3000B4F938671D44B4F934371D44B4F9363734
:104C40001D44B4F93A371E44B4F93C371E44B4F954
:104C50003E370EAF1E4494F8413707F8243D45F324
:104C60008F05082346F38F06A1F28E21009302964A
:104C70003B460195842289B22046FFF7F9FD94F85E
:104C80004137402B40F0C18004A804F09AF90DF19F
:104C900013030DF112020DF1150104A804F0C0F97F
:104CA00094F843279DF812309A423AD100239DF898
:104CB000142084F8423784F847379DF813301A439C
:104CC0008DF814200A2B00F29580DFE803F067527C
:104CD00076939393123939933900B4F82427511EEF
:104CE00089B28B429ADB013292B2934296DC002168
:104CF00091E7237876497748002B18BF0222B4F950
:104D0000243708BF01228DE86000FDF723FE3946F5
:104D10002046FFF723FF022384F84637002384F858
:104D20004837B4F822370133A4F82237B4F82037D3
:104D300001339BB2042B88BF0023A4F8203740E73F
:104D400094F84637022BECD1237863496148002B55
:104D500018BF0222B4F9243708BF01228DE8600091
:104D6000FDF7F8FD39462046FFF7F8FE9DF81330B1
:104D7000D5E7237859498DE86000002BB4F9243732
:104D800014BF022201225348FDF7E4FD39462046B4
:104D9000FFF7E4FE012384F84637C2E794F846376C
:104DA000012BF7D123784E49002B8DE86000B4F930
:104DB000243714BF02220122E5E794F84637012B7D
:104DC000AFD1237847498DE86000002BB4F9243730
:104DD00014BF022201223F48FDF7BCFD39462046A0
:104DE000FFF7BCFE002384F8463742F20F73A4F8A5
:104DF000283796E723783C49002B8DE86000B4F90A
:104E0000243714BF02220122E5E7202B1AD1237890
:104E100036493048002B18BF0222B4F9243708BFA6
:104E200001228DE86000FDF795FD39462046FFF729
:104E300095FE012384F84637002384F8423784F82E
:104E400047376EE794F84637002B3FF46AAF94F883
:104E500042370133DBB20C2B84F842370AD9217870
:104E60001C48FCF7D7FD002384F8463742F20F7345
:104E7000A4F8283794F84637012B17D194F8473710
:104E800021781448042B8DBF20230133DBB28DF829
:104E9000143087BF002384F8473784F847378DF8EC
:104EA00014303A462223FCF785FD3AE7022B7FF4C3
:104EB00038AF94F84837002B3FF433AF43F040034A
:104EC000394620468DF81430FFF748FE29E700BF29
:104ED0009DEB0008049C0020D4EB00080CEC0008BB
:104EE00044EC00087FEC0008BBEC0008EBEC000889
:104EF0000346002203F8022B00F1160123F8022BCF
:104F00008B42FBD100F61671002223F8022B8B4254
:104F1000FBD142F20F73A0F81A3FA0F81C3FA0F893
:104F20001E3FA0F8203FA0F8223F4FF00003A0F85A
:104F3000162FA0F8182FC0F8242FA0F8282F80F8DB
:104F40002A3F00F64C7100F62C73002223F8022B46
:104F50009942FBD1A0F84C2F00F66E7100F64E720C
:104F6000002322F8023B9142FBD16322A0F86E3F5E
:104F700080F8702FC0F8743FA0F8783F7047632224
:104F8000002380F8702F42F20F720370A0F8183FD0
:104F9000A0F8163FC0F8243FA0F81A2FA0F81C2F45
:104FA000A0F81E2FA0F8202FA0F8222FA0F84C3F29
:104FB000A0F86E3FA0F8283F80F82A3FC0F8743F61
:104FC000A0F8783F70470000F7B5394E4FF47A5398
:104FD00004464FF0000E1F4630461FFA8EF59542EC
:104FE0001FDA04EB4105B5F91650002D12DDA84279
:104FF000B8BF2846AF42A8BF2F4601F10A05ADB29F
:10500000B5F5F06F24BFA1F276718DB20EF1010EED
:105010002946E2E7AB42A8BF2B46AE42B8BF2E46B8
:10502000EBE7C219334452105B10D5186D102EB245
:10503000551B2DB21BB21F491F480195009612B295
:10504000FDF788FC94F8703F632B04F62C7104F68E
:105050004C701FD10B4623F8026B98421D84FAD185
:10506000002384F8703F0023A4F84C3FA4F86E3F5F
:105070001A4631F9025B2A440D8C88422B4412B245
:105080001BB2F6D112111B11A4F84C2FA4F86E3FDD
:1050900003B0F0BD04EB43020133DBB20F2BA2F8E7
:1050A0002C6FA2F84E5F84F8703FD9D8DBE700BFC1
:1050B00080C1FFFF83ED0008049C00202DE9F04F24
:1050C000BDF82440BDF92CC0BDF92880324DA71C85
:1050D0000134BFB2A4B24FF0000ECCF100091FFAA8
:1050E0008EFABE1E9245B6B254DA00EB410ABAF807
:1050F00016B0ABEB080B0FFA8BFBCB454FEAE60A79
:1051000006F0070611DA15F806B013F80A6026EA69
:105110000B0603F80A60E61004F0070A15F80AA067
:1051200013F806B04AEA0B0A13E0BBF1000F23DACA
:1051300015F806B013F80A6026EA0B0603F80A60B1
:10514000E61004F0070A15F80AB013F806A02AEAD8
:105150000B0A03F806A001F10A06B6B2B6F5F06F25
:1051600024BFA1F27676B6B2023702340EF1010EF8
:10517000BFB2A4B23146B2E7AE5DE34513F80AB060
:1051800046EA0B0603F80A604FEAE40604F0070A51
:10519000C4DAD8E7BDE8F08F21ED0008B0F8163F7B
:1051A00000EB43032DE9F04F04465888C0F3090093
:1051B00080F4A67089B080F0010000F0F7FF0228AB
:1051C00000F39D80B4F8183F4E48DFF840C103F269
:1051D0002677BFB2B7F5F06F24BFA3F15A07BFB26D
:1051E0000026394635464FF47A5204EB410316F94E
:1051F0000CE0B3F916309842B8BF18469A42A8BFDF
:105200001A46BEF1010F09D0BEF1030F04D0BEF162
:10521000FF3F71D11D4402E003EB4303ED1A01F19E
:105220000A039BB2B3F5F06F28BFA1F2767106F1C5
:1052300001062CBF89B219460A2ED6D1D4F8243FD4
:10524000AB425CDA94F8703F632B0AD102445210EF
:10525000A4F84C2F821A44F63E104243D213A4F80D
:105260006E2FB4F96E3F02930026B4F94C3F0193C0
:105270000DF11C0843460A22009639462046FFF7E6
:105280001DFF2378204ADFF888B0B3420CBF4FF0EF
:10529000010A4FF0030AB14619F8020018F8093064
:1052A0000592034019F80B00584000F079FF09F10E
:1052B00001090644B9F1030FF6B2059AECD156453F
:1052C0001DDC0623A4F8283FB4F8183FA4F81E3FBD
:1052D00003F21B7292B2B2F5F06F28BF653BC4F8BF
:1052E000245FA4F81A7F34BFA4F81C2FA4F81C3F35
:1052F000012009B0BDE8F08F03EB43038AE70020EB
:10530000F7E700BF80C1FFFF2CED00082FED00087C
:1053100029ED000810B50446FFF740FFA0B194F84E
:105320002A3F8BB9C4F8743FA4F8783F01211B4889
:10533000FDF724FE01211948FDF72CFE632384F8B4
:10534000703F052384F82A3F94F82A3F13B1013BAC
:1053500084F82A3F94F82A3F012B1ED1B4F81E3F4F
:1053600003F27F7292B2B2F5F06F28BF03F1FF3201
:10537000A4F8202F5A1C92B2B2F5F06F24BFA3F20A
:105380007F73A4F8223F4FF0010323704FF0000316
:1053900038BFA4F8222F84F82A3F10BDB859002046
:1053A00010B50446B0F8780F98B1D4F8743FB3FB49
:1053B000F0F3C3F3072081F8310081F83230332253
:1053C0000548FCF70DFC0023C4F8743FA4F8783FAF
:1053D00010BD3122F4E700BF049C002030B5B0F8C6
:1053E000201FB0F8222FB0F8183F914293B0044626
:1053F0006BDA994204DC9A4202DB2046FFF7CEFECC
:10540000B4F8182FB4F81C3F9A425CD1B4F8283F86
:10541000062B16D1B4F81E3F03F27F7292B2B2F59A
:10542000F06F28BF03F1FF32A4F8202F5A1C92B26C
:10543000B2F5F06F2ABFA3F27F73A4F8222FA4F86D
:10544000223FC022B4F81A1F2046FFF7BDFDB4F971
:105450006E1FB4F94C3FB4F91E2F00912348244924
:10546000FDF72FFAB4F96E3F0293B4F94C3F019364
:1054700008230093B4F81A1F05ABC0222046FFF79B
:105480001DFEB4F8285F013DADB2A4F8285FFDB958
:1054900018491648FCF742FC29461748FDF76EFDEF
:1054A00029461548FDF776FD1048FCF7C7FB42F288
:1054B0000F73A4F81C3F6323257084F8703F84F8B1
:1054C0002A5FC4F8245F13B030BD994293DC94E79F
:1054D0006B1F5D425D4105A920468DF81450FFF712
:1054E0005FFF0023C4F8243FEDE700BF049C0020C9
:1054F00039ED000861ED0008B85900202DE9F843A6
:105500004FF0000904460E46174698464D465FFA8E
:1055100089F3434540DA37F8132036F91310D4F8ED
:10552000743F1344C4F8743FB4F8162FB4F8783FAE
:1055300004EB42020133A4F8783F53885B009BB22E
:105540000029B8BF43F001035380B4F8183F04EBBF
:1055500043032046D9822378012B1AD1FFF73EFF5F
:10556000B4F8183F01339BB2B3F5F06F38BFA4F81D
:10557000183FB4F8163F28BFA4F8185F01339BB258
:10558000092B94BFA4F8163FA4F8165F09F101098E
:10559000BDE7FFF7BFFEE3E7BDE8F883034670B55C
:1055A0005A698568C46800691E6899606A4300FB8F
:1055B000012298691D6006FB0022D8695E685C6064
:1055C00000FB1422186A06FB1020C01300F30E0023
:1055D00000B2D86070BD000030B50D4C85B000F64B
:1055E00024152046FDF7C6FC02280FD90DF10E0147
:1055F000284603F09FFA48B1002300930DF10E02F4
:1056000001230A212046FDF753FCEAE705B030BD2F
:10561000B8590020002310B5044680F8343800F64D
:105620003800FDF793FA04F50460FDF78FFA04F5EE
:105630000560FDF78BFA04F65800FDF787FA04F5CC
:105640000660FDF783FA04F66800FDF77FFA04F5BB
:105650000760FDF77BFA04F50060FBF713FA04F529
:105660008060FBF7B9FE2046FBF7B6FE04F6280083
:1056700001F0E6FB04F62410BDE8104003F07FBA09
:105680002DE9F74F9DF834409DF830509DF83CB01F
:10569000C4EB04149946A4009DF838300193A4B2D9
:1056A0009DF8483080F837380F4690469DF84010F6
:1056B0009DF8442080F8351800F6480A80F836280E
:1056C0000646002221465046FDF72EFAC5EB05118D
:1056D000890089B2002206F63800FDF725FA14B1D8
:1056E0005046FDF72EFA019B0C9342464B46394635
:1056F0003046CDF834B003B0BDE8F04FFBF752BDF3
:105700002DE9F047BDF824709DF820609DF82850E1
:1057100004468846914600213A4600F506609A46BE
:10572000FDF702FA2EB13A46314604F65800FDF76D
:10573000FBF90995089553464A46414604F58060B1
:10574000BDE8F047FBF72EBD2DE9F74F04469DF865
:1057500044E09DF8480084F8F4E815461E469DF89C
:105760004C209DF83830009384F8F5089DF83C30C3
:10577000A4F8F62804F5046000229DF830709DF826
:10578000348001939DF840B09DF850A09DF854904E
:10579000FDF7CAF9019B0022194604F50560FDF7E3
:1057A000C3F90022594604F66800FDF7BDF9294601
:1057B00004F6280001F011FB2A46514604F6E400E5
:1057C000FDF72FF9A4F8109943463A46314604F5FF
:1057D0000060FBF7B1F840B9009A314604F5026069
:1057E00003B0BDE8F04FFBF765BC03B0BDE8F08F38
:1057F00038B504460D4600F63800FDF7AAF92946EB
:1058000004F50460FDF7A5F9294604F64800FDF704
:10581000A0F9294604F50560FDF79BF9294604F631
:105820005800FDF796F9294604F50660FDF791F951
:10583000294604F66800FDF78CF9294604F507604F
:10584000BDE83840FDF785B938B500F6480504468F
:105850002846FDF785F978B12846FDF786F9A0B10D
:105860000A490B48FCF75AFA2046FBF7CEFD2846BA
:10587000BDE83840FDF765B905480449FCF74EFA24
:105880002046BDE83840FBF7C0BD38BDA4ED000898
:10589000049C002070B504460E4600F50565E1B194
:1058A0002846FDF762F9B0B31B491C48FCF736FAED
:1058B000022384F834382846FDF748F994F835383F
:1058C0004BB394F8373833B32046FFF7BDFF04F6E7
:1058D0003800BDE87040FDF734B91148FDF74EFBC4
:1058E00031460F48FDF756FB0E490C48FCF716FAF7
:1058F000284684F83468FDF729F904F50460FDF7BB
:1059000025F904F65800FDF721F904F63800BDE842
:105910007040FDF71BB970BDDDED0008049C002050
:10592000B8590020EFED000838B504460D46A1B186
:1059300000F504652846FDF713F918B12846FDF770
:1059400014F9E8B904F638052846FDF709F990B3CB
:105950002846FDF70AF930BB38BD1748FDF70EFBA6
:1059600029461548FDF716FB14491548FCF7D6F9EA
:10597000032384F8343804F50660FDF7E2F8E1E724
:1059800010490F48FCF7CAF9042384F8343804F6A8
:105990005800FDF7DBF82846FDF7D8F804F6280094
:1059A00001F048FACEE72046FFF74EFF2846BDE853
:1059B0003840FDF7C6B838BDB859002002EE0008DF
:1059C000049C002019EE000870B5044600F5066638
:1059D000E9B101212B48FDF7D1FA01212948FDF752
:1059E000D9FA29482949FCF799F9022384F834386F
:1059F0003046FDF7ABF804F638052846FDF7B0F859
:105A000000283ED02846FDF7B0F890BB70BD304668
:105A1000FDF7A6F80028EED03046FDF7A6F80028DE
:105A2000E9D019481A49FCF779F904F65805062314
:105A300084F834382846FDF793F818B12846FDF766
:105A400094F850B113491048FCF768F904F58060E8
:105A5000FBF7DBFC2846FDF779F83046FDF776F8D2
:105A600004F50460FDF772F804F66800FDF769F8C4
:105A7000C1E72046FFF7E8FE2846BDE87040FDF785
:105A800060B870BDB8590020049C0020DDED00080E
:105A900058EE00084FEE000838B504460D4689B9A7
:105AA0001248FDF76BFA29461048FDF773FA1048C3
:105AB0001049FCF733F9052384F8343804F50660FF
:105AC000FDF73FF804F638052846FDF749F858B1C8
:105AD0002846FDF74AF838B12046FFF7B5FE2846BC
